{
  "_format": "hh-sol-artifact-1",
  "contractName": "EchidnaUniV2Tester",
  "sourceName": "contracts/crytic/EchidnaUniV2Tester.sol",
  "abi": [
    {
      "anonymous": false,
      "inputs": [
        {
          "indexed": false,
          "internalType": "uint256",
          "name": "kBefore",
          "type": "uint256"
        },
        {
          "indexed": false,
          "internalType": "uint256",
          "name": "kAfter",
          "type": "uint256"
        }
      ],
      "name": "logUints",
      "type": "event"
    },
    {
      "inputs": [
        {
          "internalType": "uint256",
          "name": "amount1",
          "type": "uint256"
        },
        {
          "internalType": "uint256",
          "name": "amount2",
          "type": "uint256"
        }
      ],
      "name": "testProvideLiquidityInvariants",
      "outputs": [],
      "stateMutability": "nonpayable",
      "type": "function"
    },
    {
      "inputs": [
        {
          "internalType": "uint256",
          "name": "lpAmount",
          "type": "uint256"
        }
      ],
      "name": "testRemoveLiquidityInvariants",
      "outputs": [],
      "stateMutability": "nonpayable",
      "type": "function"
    },
    {
      "inputs": [
        {
          "internalType": "uint256",
          "name": "swapAmountIn",
          "type": "uint256"
        }
      ],
      "name": "testSwapTokens",
      "outputs": [],
      "stateMutability": "nonpayable",
      "type": "function"
    }
  ],
  "bytecode": "0x6080604052604051620000129062000486565b604051809103906000f0801580156200002f573d6000803e3d6000fd5b506000806101000a81548173ffffffffffffffffffffffffffffffffffffffff021916908373ffffffffffffffffffffffffffffffffffffffff1602179055506040516200007d9062000486565b604051809103906000f0801580156200009a573d6000803e3d6000fd5b50600160006101000a81548173ffffffffffffffffffffffffffffffffffffffff021916908373ffffffffffffffffffffffffffffffffffffffff16021790555030604051620000ea9062000494565b808273ffffffffffffffffffffffffffffffffffffffff1673ffffffffffffffffffffffffffffffffffffffff168152602001915050604051809103906000f0801580156200013d573d6000803e3d6000fd5b50600360006101000a81548173ffffffffffffffffffffffffffffffffffffffff021916908373ffffffffffffffffffffffffffffffffffffffff160217905550600360009054906101000a900473ffffffffffffffffffffffffffffffffffffffff166000604051620001b190620004a2565b808373ffffffffffffffffffffffffffffffffffffffff1673ffffffffffffffffffffffffffffffffffffffff1681526020018273ffffffffffffffffffffffffffffffffffffffff1673ffffffffffffffffffffffffffffffffffffffff16815260200192505050604051809103906000f08015801562000237573d6000803e3d6000fd5b50600460006101000a81548173ffffffffffffffffffffffffffffffffffffffff021916908373ffffffffffffffffffffffffffffffffffffffff1602179055506000600360009054906101000a900473ffffffffffffffffffffffffffffffffffffffff1673ffffffffffffffffffffffffffffffffffffffff1663c9c653966000809054906101000a900473ffffffffffffffffffffffffffffffffffffffff16600160009054906101000a900473ffffffffffffffffffffffffffffffffffffffff166040518363ffffffff1660e01b8152600401808373ffffffffffffffffffffffffffffffffffffffff1673ffffffffffffffffffffffffffffffffffffffff1681526020018273ffffffffffffffffffffffffffffffffffffffff1673ffffffffffffffffffffffffffffffffffffffff16815260200192505050602060405180830381600087803b1580156200039357600080fd5b505af1158015620003a8573d6000803e3d6000fd5b505050506040513d6020811015620003bf57600080fd5b8101908080519060200190929190505050905080600260006101000a81548173ffffffffffffffffffffffffffffffffffffffff021916908373ffffffffffffffffffffffffffffffffffffffff1602179055506040516200042190620004b0565b604051809103906000f0801580156200043e573d6000803e3d6000fd5b50600560006101000a81548173ffffffffffffffffffffffffffffffffffffffff021916908373ffffffffffffffffffffffffffffffffffffffff16021790555050620004be565b6112748062002e3383390190565b614abb80620040a783390190565b6151158062008b6283390190565b6102ab806200dc7783390190565b61296580620004ce6000396000f3fe608060405234801561001057600080fd5b50600436106100415760003560e01c80633c095484146100465780638100ded414610074578063b78605c4146100a2575b600080fd5b6100726004803603602081101561005c57600080fd5b81019080803590602001909291905050506100da565b005b6100a06004803603602081101561008a57600080fd5b8101908080359060200190929190505050610acd565b005b6100d8600480360360408110156100b857600080fd5b810190808035906020019092919080359060200190929190505050611524565b005b600560149054906101000a900460ff166100f9576100f88182611c5a565b5b6060600267ffffffffffffffff8111801561011357600080fd5b506040519080825280602002602001820160405280156101425781602001602082028036833780820191505090505b5090506000809054906101000a900473ffffffffffffffffffffffffffffffffffffffff168160008151811061017457fe5b602002602001019073ffffffffffffffffffffffffffffffffffffffff16908173ffffffffffffffffffffffffffffffffffffffff1681525050600160009054906101000a900473ffffffffffffffffffffffffffffffffffffffff16816001815181106101de57fe5b602002602001019073ffffffffffffffffffffffffffffffffffffffff16908173ffffffffffffffffffffffffffffffffffffffff168152505060008160008151811061022757fe5b602002602001015173ffffffffffffffffffffffffffffffffffffffff166370a08231600560009054906101000a900473ffffffffffffffffffffffffffffffffffffffff166040518263ffffffff1660e01b8152600401808273ffffffffffffffffffffffffffffffffffffffff1673ffffffffffffffffffffffffffffffffffffffff16815260200191505060206040518083038186803b1580156102cd57600080fd5b505afa1580156102e1573d6000803e3d6000fd5b505050506040513d60208110156102f757600080fd5b8101908080519060200190929190505050905060008260018151811061031957fe5b602002602001015173ffffffffffffffffffffffffffffffffffffffff166370a08231600560009054906101000a900473ffffffffffffffffffffffffffffffffffffffff166040518263ffffffff1660e01b8152600401808273ffffffffffffffffffffffffffffffffffffffff1673ffffffffffffffffffffffffffffffffffffffff16815260200191505060206040518083038186803b1580156103bf57600080fd5b505afa1580156103d3573d6000803e3d6000fd5b505050506040513d60208110156103e957600080fd5b8101908080519060200190929190505050905060008061046f600360009054906101000a900473ffffffffffffffffffffffffffffffffffffffff166000809054906101000a900473ffffffffffffffffffffffffffffffffffffffff16600160009054906101000a900473ffffffffffffffffffffffffffffffffffffffff16611ce9565b91509150600081830290506000600560009054906101000a900473ffffffffffffffffffffffffffffffffffffffff1673ffffffffffffffffffffffffffffffffffffffff1663be6d055a600460009054906101000a900473ffffffffffffffffffffffffffffffffffffffff166338ed173960e01b8b60008c600560009054906101000a900473ffffffffffffffffffffffffffffffffffffffff167fffffffffffffffffffffffffffffffffffffffffffffffffffffffffffffffff604051602401808681526020018560ff168152602001806020018473ffffffffffffffffffffffffffffffffffffffff1673ffffffffffffffffffffffffffffffffffffffff168152602001838152602001828103825285818151815260200191508051906020019060200280838360005b838110156105ba57808201518184015260208101905061059f565b505050509050019650505050505050604051602081830303815290604052907bffffffffffffffffffffffffffffffffffffffffffffffffffffffff19166020820180517bffffffffffffffffffffffffffffffffffffffffffffffffffffffff83818316178352505050506040518363ffffffff1660e01b8152600401808373ffffffffffffffffffffffffffffffffffffffff1673ffffffffffffffffffffffffffffffffffffffff16815260200180602001828103825283818151815260200191508051906020019080838360005b838110156106a757808201518184015260208101905061068c565b50505050905090810190601f1680156106d45780820380516001836020036101000a031916815260200191505b509350505050600060405180830381600087803b1580156106f457600080fd5b505af1158015610708573d6000803e3d6000fd5b505050506040513d6000823e3d601f19601f82011682018060405250604081101561073257600080fd5b81019080805190602001909291908051604051939291908464010000000082111561075c57600080fd5b8382019150602082018581111561077257600080fd5b825186600182028301116401000000008211171561078f57600080fd5b8083526020830192505050908051906020019080838360005b838110156107c35780820151818401526020810190506107a8565b50505050905090810190601f1680156107f05780820380516001836020036101000a031916815260200191505b506040525050505090508015610ac35760008760008151811061080f57fe5b602002602001015173ffffffffffffffffffffffffffffffffffffffff166370a08231600560009054906101000a900473ffffffffffffffffffffffffffffffffffffffff166040518263ffffffff1660e01b8152600401808273ffffffffffffffffffffffffffffffffffffffff1673ffffffffffffffffffffffffffffffffffffffff16815260200191505060206040518083038186803b1580156108b557600080fd5b505afa1580156108c9573d6000803e3d6000fd5b505050506040513d60208110156108df57600080fd5b8101908080519060200190929190505050905060008860018151811061090157fe5b602002602001015173ffffffffffffffffffffffffffffffffffffffff166370a08231600560009054906101000a900473ffffffffffffffffffffffffffffffffffffffff166040518263ffffffff1660e01b8152600401808273ffffffffffffffffffffffffffffffffffffffff1673ffffffffffffffffffffffffffffffffffffffff16815260200191505060206040518083038186803b1580156109a757600080fd5b505afa1580156109bb573d6000803e3d6000fd5b505050506040513d60208110156109d157600080fd5b81019080805190602001909291905050509050600080610a57600360009054906101000a900473ffffffffffffffffffffffffffffffffffffffff166000809054906101000a900473ffffffffffffffffffffffffffffffffffffffff16600160009054906101000a900473ffffffffffffffffffffffffffffffffffffffff16611ce9565b91509150600081830290507ffc5129f83323c020f86fa1d2d67252635f6ec2fddf9bb9d194d94dfe017536af8782604051808381526020018281526020019250505060405180910390a180871115610aab57fe5b838a10610ab457fe5b848b11610abd57fe5b50505050505b5050505050505050565b6000600260009054906101000a900473ffffffffffffffffffffffffffffffffffffffff1673ffffffffffffffffffffffffffffffffffffffff166370a08231600560009054906101000a900473ffffffffffffffffffffffffffffffffffffffff166040518263ffffffff1660e01b8152600401808273ffffffffffffffffffffffffffffffffffffffff1673ffffffffffffffffffffffffffffffffffffffff16815260200191505060206040518083038186803b158015610b9057600080fd5b505afa158015610ba4573d6000803e3d6000fd5b505050506040513d6020811015610bba57600080fd5b8101908080519060200190929190505050905060008111610bda57600080fd5b610be682600183611e12565b9150600080610c5b600360009054906101000a900473ffffffffffffffffffffffffffffffffffffffff166000809054906101000a900473ffffffffffffffffffffffffffffffffffffffff16600160009054906101000a900473ffffffffffffffffffffffffffffffffffffffff16611ce9565b91509150600081830290506000600560009054906101000a900473ffffffffffffffffffffffffffffffffffffffff1673ffffffffffffffffffffffffffffffffffffffff1663be6d055a600260009054906101000a900473ffffffffffffffffffffffffffffffffffffffff1663095ea7b360e01b600460009054906101000a900473ffffffffffffffffffffffffffffffffffffffff167fffffffffffffffffffffffffffffffffffffffffffffffffffffffffffffffff604051602401808373ffffffffffffffffffffffffffffffffffffffff1673ffffffffffffffffffffffffffffffffffffffff16815260200182815260200192505050604051602081830303815290604052907bffffffffffffffffffffffffffffffffffffffffffffffffffffffff19166020820180517bffffffffffffffffffffffffffffffffffffffffffffffffffffffff83818316178352505050506040518363ffffffff1660e01b8152600401808373ffffffffffffffffffffffffffffffffffffffff1673ffffffffffffffffffffffffffffffffffffffff16815260200180602001828103825283818151815260200191508051906020019080838360005b83811015610e36578082015181840152602081019050610e1b565b50505050905090810190601f168015610e635780820380516001836020036101000a031916815260200191505b509350505050600060405180830381600087803b158015610e8357600080fd5b505af1158015610e97573d6000803e3d6000fd5b505050506040513d6000823e3d601f19601f820116820180604052506040811015610ec157600080fd5b810190808051906020019092919080516040519392919084640100000000821115610eeb57600080fd5b83820191506020820185811115610f0157600080fd5b8251866001820283011164010000000082111715610f1e57600080fd5b8083526020830192505050908051906020019080838360005b83811015610f52578082015181840152602081019050610f37565b50505050905090810190601f168015610f7f5780820380516001836020036101000a031916815260200191505b5060405250505050905080610f9357600080fd5b6000600560009054906101000a900473ffffffffffffffffffffffffffffffffffffffff1673ffffffffffffffffffffffffffffffffffffffff1663be6d055a600460009054906101000a900473ffffffffffffffffffffffffffffffffffffffff1663baa2abde60e01b6000809054906101000a900473ffffffffffffffffffffffffffffffffffffffff16600160009054906101000a900473ffffffffffffffffffffffffffffffffffffffff168c600080600560009054906101000a900473ffffffffffffffffffffffffffffffffffffffff167fffffffffffffffffffffffffffffffffffffffffffffffffffffffffffffffff604051602401808873ffffffffffffffffffffffffffffffffffffffff1673ffffffffffffffffffffffffffffffffffffffff1681526020018773ffffffffffffffffffffffffffffffffffffffff1673ffffffffffffffffffffffffffffffffffffffff1681526020018681526020018560ff1681526020018460ff1681526020018373ffffffffffffffffffffffffffffffffffffffff1673ffffffffffffffffffffffffffffffffffffffff168152602001828152602001975050505050505050604051602081830303815290604052907bffffffffffffffffffffffffffffffffffffffffffffffffffffffff19166020820180517bffffffffffffffffffffffffffffffffffffffffffffffffffffffff83818316178352505050506040518363ffffffff1660e01b8152600401808373ffffffffffffffffffffffffffffffffffffffff1673ffffffffffffffffffffffffffffffffffffffff16815260200180602001828103825283818151815260200191508051906020019080838360005b8381101561122d578082015181840152602081019050611212565b50505050905090810190601f16801561125a5780820380516001836020036101000a031916815260200191505b509350505050600060405180830381600087803b15801561127a57600080fd5b505af115801561128e573d6000803e3d6000fd5b505050506040513d6000823e3d601f19601f8201168201806040525060408110156112b857600080fd5b8101908080519060200190929190805160405193929190846401000000008211156112e257600080fd5b838201915060208201858111156112f857600080fd5b825186600182028301116401000000008211171561131557600080fd5b8083526020830192505050908051906020019080838360005b8381101561134957808201518184015260208101905061132e565b50505050905090810190601f1680156113765780820380516001836020036101000a031916815260200191505b50604052505050509050801561151b576000806113f9600360009054906101000a900473ffffffffffffffffffffffffffffffffffffffff166000809054906101000a900473ffffffffffffffffffffffffffffffffffffffff16600160009054906101000a900473ffffffffffffffffffffffffffffffffffffffff16611ce9565b915091506000600260009054906101000a900473ffffffffffffffffffffffffffffffffffffffff1673ffffffffffffffffffffffffffffffffffffffff166370a08231600560009054906101000a900473ffffffffffffffffffffffffffffffffffffffff166040518263ffffffff1660e01b8152600401808273ffffffffffffffffffffffffffffffffffffffff1673ffffffffffffffffffffffffffffffffffffffff16815260200191505060206040518083038186803b1580156114c057600080fd5b505afa1580156114d4573d6000803e3d6000fd5b505050506040513d60208110156114ea57600080fd5b810190808051906020019092919050505090506000828402905080871161150d57fe5b818a1161151657fe5b505050505b50505050505050565b600560149054906101000a900460ff16611543576115428282611c5a565b5b6000600260009054906101000a900473ffffffffffffffffffffffffffffffffffffffff1673ffffffffffffffffffffffffffffffffffffffff166370a08231600560009054906101000a900473ffffffffffffffffffffffffffffffffffffffff166040518263ffffffff1660e01b8152600401808273ffffffffffffffffffffffffffffffffffffffff1673ffffffffffffffffffffffffffffffffffffffff16815260200191505060206040518083038186803b15801561160657600080fd5b505afa15801561161a573d6000803e3d6000fd5b505050506040513d602081101561163057600080fd5b810190808051906020019092919050505090506000806116b6600360009054906101000a900473ffffffffffffffffffffffffffffffffffffffff166000809054906101000a900473ffffffffffffffffffffffffffffffffffffffff16600160009054906101000a900473ffffffffffffffffffffffffffffffffffffffff16611ce9565b91509150600081830290506000600560009054906101000a900473ffffffffffffffffffffffffffffffffffffffff1673ffffffffffffffffffffffffffffffffffffffff1663be6d055a600460009054906101000a900473ffffffffffffffffffffffffffffffffffffffff1663e8e3370060e01b6000809054906101000a900473ffffffffffffffffffffffffffffffffffffffff16600160009054906101000a900473ffffffffffffffffffffffffffffffffffffffff168c8c600080600560009054906101000a900473ffffffffffffffffffffffffffffffffffffffff167fffffffffffffffffffffffffffffffffffffffffffffffffffffffffffffffff604051602401808973ffffffffffffffffffffffffffffffffffffffff1673ffffffffffffffffffffffffffffffffffffffff1681526020018873ffffffffffffffffffffffffffffffffffffffff1673ffffffffffffffffffffffffffffffffffffffff1681526020018781526020018681526020018560ff1681526020018460ff1681526020018373ffffffffffffffffffffffffffffffffffffffff1673ffffffffffffffffffffffffffffffffffffffff16815260200182815260200198505050505050505050604051602081830303815290604052907bffffffffffffffffffffffffffffffffffffffffffffffffffffffff19166020820180517bffffffffffffffffffffffffffffffffffffffffffffffffffffffff83818316178352505050506040518363ffffffff1660e01b8152600401808373ffffffffffffffffffffffffffffffffffffffff1673ffffffffffffffffffffffffffffffffffffffff16815260200180602001828103825283818151815260200191508051906020019080838360005b83811015611963578082015181840152602081019050611948565b50505050905090810190601f1680156119905780820380516001836020036101000a031916815260200191505b509350505050600060405180830381600087803b1580156119b057600080fd5b505af11580156119c4573d6000803e3d6000fd5b505050506040513d6000823e3d601f19601f8201168201806040525060408110156119ee57600080fd5b810190808051906020019092919080516040519392919084640100000000821115611a1857600080fd5b83820191506020820185811115611a2e57600080fd5b8251866001820283011164010000000082111715611a4b57600080fd5b8083526020830192505050908051906020019080838360005b83811015611a7f578082015181840152602081019050611a64565b50505050905090810190601f168015611aac5780820380516001836020036101000a031916815260200191505b506040525050505090508015611c5157600080611b2f600360009054906101000a900473ffffffffffffffffffffffffffffffffffffffff166000809054906101000a900473ffffffffffffffffffffffffffffffffffffffff16600160009054906101000a900473ffffffffffffffffffffffffffffffffffffffff16611ce9565b915091506000600260009054906101000a900473ffffffffffffffffffffffffffffffffffffffff1673ffffffffffffffffffffffffffffffffffffffff166370a08231600560009054906101000a900473ffffffffffffffffffffffffffffffffffffffff166040518263ffffffff1660e01b8152600401808273ffffffffffffffffffffffffffffffffffffffff1673ffffffffffffffffffffffffffffffffffffffff16815260200191505060206040518083038186803b158015611bf657600080fd5b505afa158015611c0a573d6000803e3d6000fd5b505050506040513d6020811015611c2057600080fd5b8101908080519060200190929190505050905060008284029050808610611c4357fe5b818910611c4c57fe5b505050505b50505050505050565b611c87826103e87fffffffffffffffffffffffffffffffffffffffffffffffffffffffffffffffff611e12565b9150611cb6816103e87fffffffffffffffffffffffffffffffffffffffffffffffffffffffffffffffff611e12565b9050611cc28282611e2e565b611cca611ff7565b6001600560146101000a81548160ff0219169083151502179055505050565b6000806000611cf88585612638565b509050600080611d098888886127af565b73ffffffffffffffffffffffffffffffffffffffff16630902f1ac6040518163ffffffff1660e01b815260040160606040518083038186803b158015611d4e57600080fd5b505afa158015611d62573d6000803e3d6000fd5b505050506040513d6060811015611d7857600080fd5b81019080805190602001909291908051906020019092919080519060200190929190505050506dffffffffffffffffffffffffffff1691506dffffffffffffffffffffffffffff1691508273ffffffffffffffffffffffffffffffffffffffff168773ffffffffffffffffffffffffffffffffffffffff1614611dfc578082611dff565b81815b8095508196505050505050935093915050565b60006001838303018481611e2257fe5b06830190509392505050565b600160009054906101000a900473ffffffffffffffffffffffffffffffffffffffff1673ffffffffffffffffffffffffffffffffffffffff166340c10f19600560009054906101000a900473ffffffffffffffffffffffffffffffffffffffff16836040518363ffffffff1660e01b8152600401808373ffffffffffffffffffffffffffffffffffffffff1673ffffffffffffffffffffffffffffffffffffffff16815260200182815260200192505050600060405180830381600087803b158015611ef957600080fd5b505af1158015611f0d573d6000803e3d6000fd5b505050506000809054906101000a900473ffffffffffffffffffffffffffffffffffffffff1673ffffffffffffffffffffffffffffffffffffffff166340c10f19600560009054906101000a900473ffffffffffffffffffffffffffffffffffffffff16846040518363ffffffff1660e01b8152600401808373ffffffffffffffffffffffffffffffffffffffff1673ffffffffffffffffffffffffffffffffffffffff16815260200182815260200192505050600060405180830381600087803b158015611fdb57600080fd5b505af1158015611fef573d6000803e3d6000fd5b505050505050565b600560009054906101000a900473ffffffffffffffffffffffffffffffffffffffff1673ffffffffffffffffffffffffffffffffffffffff1663be6d055a6000809054906101000a900473ffffffffffffffffffffffffffffffffffffffff1663095ea7b360e01b600460009054906101000a900473ffffffffffffffffffffffffffffffffffffffff167fffffffffffffffffffffffffffffffffffffffffffffffffffffffffffffffff604051602401808373ffffffffffffffffffffffffffffffffffffffff1673ffffffffffffffffffffffffffffffffffffffff16815260200182815260200192505050604051602081830303815290604052907bffffffffffffffffffffffffffffffffffffffffffffffffffffffff19166020820180517bffffffffffffffffffffffffffffffffffffffffffffffffffffffff83818316178352505050506040518363ffffffff1660e01b8152600401808373ffffffffffffffffffffffffffffffffffffffff1673ffffffffffffffffffffffffffffffffffffffff16815260200180602001828103825283818151815260200191508051906020019080838360005b838110156121c45780820151818401526020810190506121a9565b50505050905090810190601f1680156121f15780820380516001836020036101000a031916815260200191505b509350505050600060405180830381600087803b15801561221157600080fd5b505af1158015612225573d6000803e3d6000fd5b505050506040513d6000823e3d601f19601f82011682018060405250604081101561224f57600080fd5b81019080805190602001909291908051604051939291908464010000000082111561227957600080fd5b8382019150602082018581111561228f57600080fd5b82518660018202830111640100000000821117156122ac57600080fd5b8083526020830192505050908051906020019080838360005b838110156122e05780820151818401526020810190506122c5565b50505050905090810190601f16801561230d5780820380516001836020036101000a031916815260200191505b506040525050505050600560009054906101000a900473ffffffffffffffffffffffffffffffffffffffff1673ffffffffffffffffffffffffffffffffffffffff1663be6d055a600160009054906101000a900473ffffffffffffffffffffffffffffffffffffffff1663095ea7b360e01b600460009054906101000a900473ffffffffffffffffffffffffffffffffffffffff167fffffffffffffffffffffffffffffffffffffffffffffffffffffffffffffffff604051602401808373ffffffffffffffffffffffffffffffffffffffff1673ffffffffffffffffffffffffffffffffffffffff16815260200182815260200192505050604051602081830303815290604052907bffffffffffffffffffffffffffffffffffffffffffffffffffffffff19166020820180517bffffffffffffffffffffffffffffffffffffffffffffffffffffffff83818316178352505050506040518363ffffffff1660e01b8152600401808373ffffffffffffffffffffffffffffffffffffffff1673ffffffffffffffffffffffffffffffffffffffff16815260200180602001828103825283818151815260200191508051906020019080838360005b838110156124e45780820151818401526020810190506124c9565b50505050905090810190601f1680156125115780820380516001836020036101000a031916815260200191505b509350505050600060405180830381600087803b15801561253157600080fd5b505af1158015612545573d6000803e3d6000fd5b505050506040513d6000823e3d601f19601f82011682018060405250604081101561256f57600080fd5b81019080805190602001909291908051604051939291908464010000000082111561259957600080fd5b838201915060208201858111156125af57600080fd5b82518660018202830111640100000000821117156125cc57600080fd5b8083526020830192505050908051906020019080838360005b838110156126005780820151818401526020810190506125e5565b50505050905090810190601f16801561262d5780820380516001836020036101000a031916815260200191505b506040525050505050565b6000808273ffffffffffffffffffffffffffffffffffffffff168473ffffffffffffffffffffffffffffffffffffffff1614156126c0576040517f08c379a000000000000000000000000000000000000000000000000000000000815260040180806020018281038252602581526020018061290b6025913960400191505060405180910390fd5b8273ffffffffffffffffffffffffffffffffffffffff168473ffffffffffffffffffffffffffffffffffffffff16106126fa5782846126fd565b83835b8092508193505050600073ffffffffffffffffffffffffffffffffffffffff168273ffffffffffffffffffffffffffffffffffffffff1614156127a8576040517f08c379a000000000000000000000000000000000000000000000000000000000815260040180806020018281038252601e8152602001807f556e697377617056324c6962726172793a205a45524f5f41444452455353000081525060200191505060405180910390fd5b9250929050565b60008060006127be8585612638565b91509150858282604051602001808373ffffffffffffffffffffffffffffffffffffffff1673ffffffffffffffffffffffffffffffffffffffff1660601b81526014018273ffffffffffffffffffffffffffffffffffffffff1673ffffffffffffffffffffffffffffffffffffffff1660601b8152601401925050506040516020818303038152906040528051906020012060405160200180807fff000000000000000000000000000000000000000000000000000000000000008152506001018373ffffffffffffffffffffffffffffffffffffffff1673ffffffffffffffffffffffffffffffffffffffff1660601b8152601401828152602001807f40ccc7d6659c66489c67f86ee7da56ef3d635186e37713baa8676c9dee5f9325815250602001925050506040516020818303038152906040528051906020012060001c92505050939250505056fe556e697377617056324c6962726172793a204944454e544943414c5f414444524553534553a264697066735822122057d16786a3b21a38ea108da0b4392ff8944132db89f9554cc1461be2e1577b9664736f6c63430006060033608060405234801561001057600080fd5b506000469050604051808061122260529139605201905060405180910390206040518060400160405280600a81526020017f556e697377617020563200000000000000000000000000000000000000000000815250805190602001206040518060400160405280600181526020017f3100000000000000000000000000000000000000000000000000000000000000815250805190602001208330604051602001808681526020018581526020018481526020018381526020018273ffffffffffffffffffffffffffffffffffffffff1673ffffffffffffffffffffffffffffffffffffffff1681526020019550505050505060405160208183030381529060405280519060200120600381905550506110f38061012f6000396000f3fe608060405234801561001057600080fd5b50600436106100ea5760003560e01c806340c10f191161008c57806395d89b411161006657806395d89b41146103da578063a9059cbb1461045d578063d505accf146104c3578063dd62ed3e1461055c576100ea565b806340c10f19146102dc57806370a082311461032a5780637ecebe0014610382576100ea565b806323b872dd116100c857806323b872dd146101f657806330adf81f1461027c578063313ce5671461029a5780633644e515146102be576100ea565b806306fdde03146100ef578063095ea7b31461017257806318160ddd146101d8575b600080fd5b6100f76105d4565b6040518080602001828103825283818151815260200191508051906020019080838360005b8381101561013757808201518184015260208101905061011c565b50505050905090810190601f1680156101645780820380516001836020036101000a031916815260200191505b509250505060405180910390f35b6101be6004803603604081101561018857600080fd5b81019080803573ffffffffffffffffffffffffffffffffffffffff1690602001909291908035906020019092919050505061060d565b604051808215151515815260200191505060405180910390f35b6101e0610624565b6040518082815260200191505060405180910390f35b6102626004803603606081101561020c57600080fd5b81019080803573ffffffffffffffffffffffffffffffffffffffff169060200190929190803573ffffffffffffffffffffffffffffffffffffffff1690602001909291908035906020019092919050505061062a565b604051808215151515815260200191505060405180910390f35b6102846107f5565b6040518082815260200191505060405180910390f35b6102a261081c565b604051808260ff1660ff16815260200191505060405180910390f35b6102c6610821565b6040518082815260200191505060405180910390f35b610328600480360360408110156102f257600080fd5b81019080803573ffffffffffffffffffffffffffffffffffffffff16906020019092919080359060200190929190505050610827565b005b61036c6004803603602081101561034057600080fd5b81019080803573ffffffffffffffffffffffffffffffffffffffff169060200190929190505050610835565b6040518082815260200191505060405180910390f35b6103c46004803603602081101561039857600080fd5b81019080803573ffffffffffffffffffffffffffffffffffffffff16906020019092919050505061084d565b6040518082815260200191505060405180910390f35b6103e2610865565b6040518080602001828103825283818151815260200191508051906020019080838360005b83811015610422578082015181840152602081019050610407565b50505050905090810190601f16801561044f5780820380516001836020036101000a031916815260200191505b509250505060405180910390f35b6104a96004803603604081101561047357600080fd5b81019080803573ffffffffffffffffffffffffffffffffffffffff1690602001909291908035906020019092919050505061089e565b604051808215151515815260200191505060405180910390f35b61055a600480360360e08110156104d957600080fd5b81019080803573ffffffffffffffffffffffffffffffffffffffff169060200190929190803573ffffffffffffffffffffffffffffffffffffffff1690602001909291908035906020019092919080359060200190929190803560ff16906020019092919080359060200190929190803590602001909291905050506108b5565b005b6105be6004803603604081101561057257600080fd5b81019080803573ffffffffffffffffffffffffffffffffffffffff169060200190929190803573ffffffffffffffffffffffffffffffffffffffff169060200190929190505050610bf9565b6040518082815260200191505060405180910390f35b6040518060400160405280600a81526020017f556e69737761702056320000000000000000000000000000000000000000000081525081565b600061061a338484610c1e565b6001905092915050565b60005481565b60007fffffffffffffffffffffffffffffffffffffffffffffffffffffffffffffffff600260008673ffffffffffffffffffffffffffffffffffffffff1673ffffffffffffffffffffffffffffffffffffffff16815260200190815260200160002060003373ffffffffffffffffffffffffffffffffffffffff1673ffffffffffffffffffffffffffffffffffffffff16815260200190815260200160002054146107df5761075e82600260008773ffffffffffffffffffffffffffffffffffffffff1673ffffffffffffffffffffffffffffffffffffffff16815260200190815260200160002060003373ffffffffffffffffffffffffffffffffffffffff1673ffffffffffffffffffffffffffffffffffffffff16815260200190815260200160002054610d0990919063ffffffff16565b600260008673ffffffffffffffffffffffffffffffffffffffff1673ffffffffffffffffffffffffffffffffffffffff16815260200190815260200160002060003373ffffffffffffffffffffffffffffffffffffffff1673ffffffffffffffffffffffffffffffffffffffff168152602001908152602001600020819055505b6107ea848484610d8c565b600190509392505050565b7f6e71edae12b1b97f4d1f60370fef10105fa2faae0126114a169c64845d6126c960001b81565b601281565b60035481565b6108318282610f20565b5050565b60016020528060005260406000206000915090505481565b60046020528060005260406000206000915090505481565b6040518060400160405280600681526020017f554e492d5632000000000000000000000000000000000000000000000000000081525081565b60006108ab338484610d8c565b6001905092915050565b4284101561092b576040517f08c379a00000000000000000000000000000000000000000000000000000000081526004018080602001828103825260128152602001807f556e697377617056323a2045585049524544000000000000000000000000000081525060200191505060405180910390fd5b60006003547f6e71edae12b1b97f4d1f60370fef10105fa2faae0126114a169c64845d6126c960001b898989600460008e73ffffffffffffffffffffffffffffffffffffffff1673ffffffffffffffffffffffffffffffffffffffff1681526020019081526020016000206000815480929190600101919050558a604051602001808781526020018673ffffffffffffffffffffffffffffffffffffffff1673ffffffffffffffffffffffffffffffffffffffff1681526020018573ffffffffffffffffffffffffffffffffffffffff1673ffffffffffffffffffffffffffffffffffffffff16815260200184815260200183815260200182815260200196505050505050506040516020818303038152906040528051906020012060405160200180807f190100000000000000000000000000000000000000000000000000000000000081525060020183815260200182815260200192505050604051602081830303815290604052805190602001209050600060018286868660405160008152602001604052604051808581526020018460ff1660ff1681526020018381526020018281526020019450505050506020604051602081039080840390855afa158015610afd573d6000803e3d6000fd5b505050602060405103519050600073ffffffffffffffffffffffffffffffffffffffff168173ffffffffffffffffffffffffffffffffffffffff1614158015610b7157508873ffffffffffffffffffffffffffffffffffffffff168173ffffffffffffffffffffffffffffffffffffffff16145b610be3576040517f08c379a000000000000000000000000000000000000000000000000000000000815260040180806020018281038252601c8152602001807f556e697377617056323a20494e56414c49445f5349474e41545552450000000081525060200191505060405180910390fd5b610bee898989610c1e565b505050505050505050565b6002602052816000526040600020602052806000526040600020600091509150505481565b80600260008573ffffffffffffffffffffffffffffffffffffffff1673ffffffffffffffffffffffffffffffffffffffff16815260200190815260200160002060008473ffffffffffffffffffffffffffffffffffffffff1673ffffffffffffffffffffffffffffffffffffffff168152602001908152602001600020819055508173ffffffffffffffffffffffffffffffffffffffff168373ffffffffffffffffffffffffffffffffffffffff167f8c5be1e5ebec7d5bd14f71427d1e84f3dd0314c0f7b2291e5b200ac8c7c3b925836040518082815260200191505060405180910390a3505050565b6000828284039150811115610d86576040517f08c379a00000000000000000000000000000000000000000000000000000000081526004018080602001828103825260158152602001807f64732d6d6174682d7375622d756e646572666c6f77000000000000000000000081525060200191505060405180910390fd5b92915050565b610dde81600160008673ffffffffffffffffffffffffffffffffffffffff1673ffffffffffffffffffffffffffffffffffffffff16815260200190815260200160002054610d0990919063ffffffff16565b600160008573ffffffffffffffffffffffffffffffffffffffff1673ffffffffffffffffffffffffffffffffffffffff16815260200190815260200160002081905550610e7381600160008573ffffffffffffffffffffffffffffffffffffffff1673ffffffffffffffffffffffffffffffffffffffff1681526020019081526020016000205461103a90919063ffffffff16565b600160008473ffffffffffffffffffffffffffffffffffffffff1673ffffffffffffffffffffffffffffffffffffffff168152602001908152602001600020819055508173ffffffffffffffffffffffffffffffffffffffff168373ffffffffffffffffffffffffffffffffffffffff167fddf252ad1be2c89b69c2b068fc378daa952ba7f163c4a11628f55a4df523b3ef836040518082815260200191505060405180910390a3505050565b610f358160005461103a90919063ffffffff16565b600081905550610f8d81600160008573ffffffffffffffffffffffffffffffffffffffff1673ffffffffffffffffffffffffffffffffffffffff1681526020019081526020016000205461103a90919063ffffffff16565b600160008473ffffffffffffffffffffffffffffffffffffffff1673ffffffffffffffffffffffffffffffffffffffff168152602001908152602001600020819055508173ffffffffffffffffffffffffffffffffffffffff16600073ffffffffffffffffffffffffffffffffffffffff167fddf252ad1be2c89b69c2b068fc378daa952ba7f163c4a11628f55a4df523b3ef836040518082815260200191505060405180910390a35050565b60008282840191508110156110b7576040517f08c379a00000000000000000000000000000000000000000000000000000000081526004018080602001828103825260148152602001807f64732d6d6174682d6164642d6f766572666c6f7700000000000000000000000081525060200191505060405180910390fd5b9291505056fea26469706673582212200e6c8b0ec2e219695eefb8fd73bcb4b11837fd4e354fc960e8f8a2f5c72e96b464736f6c63430006060033454950373132446f6d61696e28737472696e67206e616d652c737472696e672076657273696f6e2c75696e7432353620636861696e49642c6164647265737320766572696679696e67436f6e747261637429608060405234801561001057600080fd5b50604051614abb380380614abb8339818101604052602081101561003357600080fd5b810190808051906020019092919050505080600160006101000a81548173ffffffffffffffffffffffffffffffffffffffff021916908373ffffffffffffffffffffffffffffffffffffffff16021790555050614a26806100956000396000f3fe608060405234801561001057600080fd5b50600436106100885760003560e01c8063a2e74af61161005b578063a2e74af6146101ad578063c9c65396146101f1578063e6a4390514610295578063f46901ed1461033957610088565b8063017e7e581461008d578063094b7415146100d75780631e3dd18b14610121578063574f2ba31461018f575b600080fd5b61009561037d565b604051808273ffffffffffffffffffffffffffffffffffffffff1673ffffffffffffffffffffffffffffffffffffffff16815260200191505060405180910390f35b6100df6103a2565b604051808273ffffffffffffffffffffffffffffffffffffffff1673ffffffffffffffffffffffffffffffffffffffff16815260200191505060405180910390f35b61014d6004803603602081101561013757600080fd5b81019080803590602001909291905050506103c8565b604051808273ffffffffffffffffffffffffffffffffffffffff1673ffffffffffffffffffffffffffffffffffffffff16815260200191505060405180910390f35b610197610404565b6040518082815260200191505060405180910390f35b6101ef600480360360208110156101c357600080fd5b81019080803573ffffffffffffffffffffffffffffffffffffffff169060200190929190505050610411565b005b6102536004803603604081101561020757600080fd5b81019080803573ffffffffffffffffffffffffffffffffffffffff169060200190929190803573ffffffffffffffffffffffffffffffffffffffff169060200190929190505050610518565b604051808273ffffffffffffffffffffffffffffffffffffffff1673ffffffffffffffffffffffffffffffffffffffff16815260200191505060405180910390f35b6102f7600480360360408110156102ab57600080fd5b81019080803573ffffffffffffffffffffffffffffffffffffffff169060200190929190803573ffffffffffffffffffffffffffffffffffffffff169060200190929190505050610bf2565b604051808273ffffffffffffffffffffffffffffffffffffffff1673ffffffffffffffffffffffffffffffffffffffff16815260200191505060405180910390f35b61037b6004803603602081101561034f57600080fd5b81019080803573ffffffffffffffffffffffffffffffffffffffff169060200190929190505050610c34565b005b6000809054906101000a900473ffffffffffffffffffffffffffffffffffffffff1681565b600160009054906101000a900473ffffffffffffffffffffffffffffffffffffffff1681565b600381815481106103d557fe5b906000526020600020016000915054906101000a900473ffffffffffffffffffffffffffffffffffffffff1681565b6000600380549050905090565b600160009054906101000a900473ffffffffffffffffffffffffffffffffffffffff1673ffffffffffffffffffffffffffffffffffffffff163373ffffffffffffffffffffffffffffffffffffffff16146104d4576040517f08c379a00000000000000000000000000000000000000000000000000000000081526004018080602001828103825260148152602001807f556e697377617056323a20464f5242494444454e00000000000000000000000081525060200191505060405180910390fd5b80600160006101000a81548173ffffffffffffffffffffffffffffffffffffffff021916908373ffffffffffffffffffffffffffffffffffffffff16021790555050565b60008173ffffffffffffffffffffffffffffffffffffffff168373ffffffffffffffffffffffffffffffffffffffff1614156105bc576040517f08c379a000000000000000000000000000000000000000000000000000000000815260040180806020018281038252601e8152602001807f556e697377617056323a204944454e544943414c5f414444524553534553000081525060200191505060405180910390fd5b6000808373ffffffffffffffffffffffffffffffffffffffff168573ffffffffffffffffffffffffffffffffffffffff16106105f95783856105fc565b84845b91509150600073ffffffffffffffffffffffffffffffffffffffff168273ffffffffffffffffffffffffffffffffffffffff1614156106a3576040517f08c379a00000000000000000000000000000000000000000000000000000000081526004018080602001828103825260178152602001807f556e697377617056323a205a45524f5f4144445245535300000000000000000081525060200191505060405180910390fd5b600073ffffffffffffffffffffffffffffffffffffffff16600260008473ffffffffffffffffffffffffffffffffffffffff1673ffffffffffffffffffffffffffffffffffffffff16815260200190815260200160002060008373ffffffffffffffffffffffffffffffffffffffff1673ffffffffffffffffffffffffffffffffffffffff16815260200190815260200160002060009054906101000a900473ffffffffffffffffffffffffffffffffffffffff1673ffffffffffffffffffffffffffffffffffffffff16146107e1576040517f08c379a00000000000000000000000000000000000000000000000000000000081526004018080602001828103825260168152602001807f556e697377617056323a20504149525f4558495354530000000000000000000081525060200191505060405180910390fd5b6060604051806020016107f390610d3a565b6020820181038252601f19601f82011660405250905060008383604051602001808373ffffffffffffffffffffffffffffffffffffffff1673ffffffffffffffffffffffffffffffffffffffff1660601b81526014018273ffffffffffffffffffffffffffffffffffffffff1673ffffffffffffffffffffffffffffffffffffffff1660601b815260140192505050604051602081830303815290604052805190602001209050808251602084016000f594508473ffffffffffffffffffffffffffffffffffffffff1663485cc95585856040518363ffffffff1660e01b8152600401808373ffffffffffffffffffffffffffffffffffffffff1673ffffffffffffffffffffffffffffffffffffffff1681526020018273ffffffffffffffffffffffffffffffffffffffff1673ffffffffffffffffffffffffffffffffffffffff16815260200192505050600060405180830381600087803b15801561095957600080fd5b505af115801561096d573d6000803e3d6000fd5b5050505084600260008673ffffffffffffffffffffffffffffffffffffffff1673ffffffffffffffffffffffffffffffffffffffff16815260200190815260200160002060008573ffffffffffffffffffffffffffffffffffffffff1673ffffffffffffffffffffffffffffffffffffffff16815260200190815260200160002060006101000a81548173ffffffffffffffffffffffffffffffffffffffff021916908373ffffffffffffffffffffffffffffffffffffffff16021790555084600260008573ffffffffffffffffffffffffffffffffffffffff1673ffffffffffffffffffffffffffffffffffffffff16815260200190815260200160002060008673ffffffffffffffffffffffffffffffffffffffff1673ffffffffffffffffffffffffffffffffffffffff16815260200190815260200160002060006101000a81548173ffffffffffffffffffffffffffffffffffffffff021916908373ffffffffffffffffffffffffffffffffffffffff1602179055506003859080600181540180825580915050600190039060005260206000200160009091909190916101000a81548173ffffffffffffffffffffffffffffffffffffffff021916908373ffffffffffffffffffffffffffffffffffffffff1602179055508273ffffffffffffffffffffffffffffffffffffffff168473ffffffffffffffffffffffffffffffffffffffff167f0d3648bd0f6ba80134a33ba9275ac585d9d315f0ad8355cddefde31afa28d0e987600380549050604051808373ffffffffffffffffffffffffffffffffffffffff1673ffffffffffffffffffffffffffffffffffffffff1681526020018281526020019250505060405180910390a35050505092915050565b60026020528160005260406000206020528060005260406000206000915091509054906101000a900473ffffffffffffffffffffffffffffffffffffffff1681565b600160009054906101000a900473ffffffffffffffffffffffffffffffffffffffff1673ffffffffffffffffffffffffffffffffffffffff163373ffffffffffffffffffffffffffffffffffffffff1614610cf7576040517f08c379a00000000000000000000000000000000000000000000000000000000081526004018080602001828103825260148152602001807f556e697377617056323a20464f5242494444454e00000000000000000000000081525060200191505060405180910390fd5b806000806101000a81548173ffffffffffffffffffffffffffffffffffffffff021916908373ffffffffffffffffffffffffffffffffffffffff16021790555050565b613ca980610d488339019056fe60806040526001600c5534801561001557600080fd5b5060004690506040518080613c5760529139605201905060405180910390206040518060400160405280600a81526020017f556e697377617020563200000000000000000000000000000000000000000000815250805190602001206040518060400160405280600181526020017f3100000000000000000000000000000000000000000000000000000000000000815250805190602001208330604051602001808681526020018581526020018481526020018381526020018273ffffffffffffffffffffffffffffffffffffffff1673ffffffffffffffffffffffffffffffffffffffff16815260200195505050505050604051602081830303815290604052805190602001206003819055505033600560006101000a81548173ffffffffffffffffffffffffffffffffffffffff021916908373ffffffffffffffffffffffffffffffffffffffff160217905550613ae2806101756000396000f3fe608060405234801561001057600080fd5b50600436106101c45760003560e01c80636a627842116100f9578063ba9a7a5611610097578063d21220a711610071578063d21220a71461092d578063d505accf14610977578063dd62ed3e14610a10578063fff6cae914610a88576101c4565b8063ba9a7a5614610881578063bc25cf771461089f578063c45a0155146108e3576101c4565b80637ecebe00116100d35780637ecebe00146106e157806389afcb441461073957806395d89b4114610798578063a9059cbb1461081b576101c4565b80636a6278421461061357806370a082311461066b5780637464fc3d146106c3576101c4565b806330adf81f1161016657806340c10f191161014057806340c10f1914610525578063485cc955146105735780635909c0d5146105d75780635a3d5493146105f5576101c4565b806330adf81f146104c5578063313ce567146104e35780633644e51514610507576101c4565b8063095ea7b3116101a2578063095ea7b3146103715780630dfe1681146103d757806318160ddd1461042157806323b872dd1461043f576101c4565b8063022c0d9f146101c957806306fdde03146102765780630902f1ac146102f9575b600080fd5b610274600480360360808110156101df57600080fd5b810190808035906020019092919080359060200190929190803573ffffffffffffffffffffffffffffffffffffffff1690602001909291908035906020019064010000000081111561023057600080fd5b82018360208201111561024257600080fd5b8035906020019184600183028401116401000000008311171561026457600080fd5b9091929391929390505050610a92565b005b61027e61127f565b6040518080602001828103825283818151815260200191508051906020019080838360005b838110156102be5780820151818401526020810190506102a3565b50505050905090810190601f1680156102eb5780820380516001836020036101000a031916815260200191505b509250505060405180910390f35b6103016112b8565b60405180846dffffffffffffffffffffffffffff166dffffffffffffffffffffffffffff168152602001836dffffffffffffffffffffffffffff166dffffffffffffffffffffffffffff1681526020018263ffffffff1663ffffffff168152602001935050505060405180910390f35b6103bd6004803603604081101561038757600080fd5b81019080803573ffffffffffffffffffffffffffffffffffffffff16906020019092919080359060200190929190505050611315565b604051808215151515815260200191505060405180910390f35b6103df61132c565b604051808273ffffffffffffffffffffffffffffffffffffffff1673ffffffffffffffffffffffffffffffffffffffff16815260200191505060405180910390f35b610429611352565b6040518082815260200191505060405180910390f35b6104ab6004803603606081101561045557600080fd5b81019080803573ffffffffffffffffffffffffffffffffffffffff169060200190929190803573ffffffffffffffffffffffffffffffffffffffff16906020019092919080359060200190929190505050611358565b604051808215151515815260200191505060405180910390f35b6104cd611523565b6040518082815260200191505060405180910390f35b6104eb61154a565b604051808260ff1660ff16815260200191505060405180910390f35b61050f61154f565b6040518082815260200191505060405180910390f35b6105716004803603604081101561053b57600080fd5b81019080803573ffffffffffffffffffffffffffffffffffffffff16906020019092919080359060200190929190505050611555565b005b6105d56004803603604081101561058957600080fd5b81019080803573ffffffffffffffffffffffffffffffffffffffff169060200190929190803573ffffffffffffffffffffffffffffffffffffffff169060200190929190505050611563565b005b6105df6116ac565b6040518082815260200191505060405180910390f35b6105fd6116b2565b6040518082815260200191505060405180910390f35b6106556004803603602081101561062957600080fd5b81019080803573ffffffffffffffffffffffffffffffffffffffff1690602001909291905050506116b8565b6040518082815260200191505060405180910390f35b6106ad6004803603602081101561068157600080fd5b81019080803573ffffffffffffffffffffffffffffffffffffffff169060200190929190505050611b69565b6040518082815260200191505060405180910390f35b6106cb611b81565b6040518082815260200191505060405180910390f35b610723600480360360208110156106f757600080fd5b81019080803573ffffffffffffffffffffffffffffffffffffffff169060200190929190505050611b87565b6040518082815260200191505060405180910390f35b61077b6004803603602081101561074f57600080fd5b81019080803573ffffffffffffffffffffffffffffffffffffffff169060200190929190505050611b9f565b604051808381526020018281526020019250505060405180910390f35b6107a061218c565b6040518080602001828103825283818151815260200191508051906020019080838360005b838110156107e05780820151818401526020810190506107c5565b50505050905090810190601f16801561080d5780820380516001836020036101000a031916815260200191505b509250505060405180910390f35b6108676004803603604081101561083157600080fd5b81019080803573ffffffffffffffffffffffffffffffffffffffff169060200190929190803590602001909291905050506121c5565b604051808215151515815260200191505060405180910390f35b6108896121dc565b6040518082815260200191505060405180910390f35b6108e1600480360360208110156108b557600080fd5b81019080803573ffffffffffffffffffffffffffffffffffffffff1690602001909291905050506121e2565b005b6108eb6124bd565b604051808273ffffffffffffffffffffffffffffffffffffffff1673ffffffffffffffffffffffffffffffffffffffff16815260200191505060405180910390f35b6109356124e3565b604051808273ffffffffffffffffffffffffffffffffffffffff1673ffffffffffffffffffffffffffffffffffffffff16815260200191505060405180910390f35b610a0e600480360360e081101561098d57600080fd5b81019080803573ffffffffffffffffffffffffffffffffffffffff169060200190929190803573ffffffffffffffffffffffffffffffffffffffff1690602001909291908035906020019092919080359060200190929190803560ff1690602001909291908035906020019092919080359060200190929190505050612509565b005b610a7260048036036040811015610a2657600080fd5b81019080803573ffffffffffffffffffffffffffffffffffffffff169060200190929190803573ffffffffffffffffffffffffffffffffffffffff16906020019092919050505061284d565b6040518082815260200191505060405180910390f35b610a90612872565b005b6001600c5414610b0a576040517f08c379a00000000000000000000000000000000000000000000000000000000081526004018080602001828103825260118152602001807f556e697377617056323a204c4f434b454400000000000000000000000000000081525060200191505060405180910390fd5b6000600c819055506000851180610b215750600084115b610b76576040517f08c379a00000000000000000000000000000000000000000000000000000000081526004018080602001828103825260258152602001806139f36025913960400191505060405180910390fd5b600080610b816112b8565b5091509150816dffffffffffffffffffffffffffff1687108015610bb45750806dffffffffffffffffffffffffffff1686105b610c09576040517f08c379a0000000000000000000000000000000000000000000000000000000008152600401808060200182810382526021815260200180613a3c6021913960400191505060405180910390fd5b6000806000600660009054906101000a900473ffffffffffffffffffffffffffffffffffffffff1690506000600760009054906101000a900473ffffffffffffffffffffffffffffffffffffffff1690508173ffffffffffffffffffffffffffffffffffffffff168973ffffffffffffffffffffffffffffffffffffffff1614158015610cc257508073ffffffffffffffffffffffffffffffffffffffff168973ffffffffffffffffffffffffffffffffffffffff1614155b610d34576040517f08c379a00000000000000000000000000000000000000000000000000000000081526004018080602001828103825260158152602001807f556e697377617056323a20494e56414c49445f544f000000000000000000000081525060200191505060405180910390fd5b60008b1115610d4957610d48828a8d612af2565b5b60008a1115610d5e57610d5d818a8c612af2565b5b6000888890501115610e46578873ffffffffffffffffffffffffffffffffffffffff166310d1e85c338d8d8c8c6040518663ffffffff1660e01b8152600401808673ffffffffffffffffffffffffffffffffffffffff1673ffffffffffffffffffffffffffffffffffffffff168152602001858152602001848152602001806020018281038252848482818152602001925080828437600081840152601f19601f8201169050808301925050509650505050505050600060405180830381600087803b158015610e2d57600080fd5b505af1158015610e41573d6000803e3d6000fd5b505050505b8173ffffffffffffffffffffffffffffffffffffffff166370a08231306040518263ffffffff1660e01b8152600401808273ffffffffffffffffffffffffffffffffffffffff1673ffffffffffffffffffffffffffffffffffffffff16815260200191505060206040518083038186803b158015610ec357600080fd5b505afa158015610ed7573d6000803e3d6000fd5b505050506040513d6020811015610eed57600080fd5b810190808051906020019092919050505093508073ffffffffffffffffffffffffffffffffffffffff166370a08231306040518263ffffffff1660e01b8152600401808273ffffffffffffffffffffffffffffffffffffffff1673ffffffffffffffffffffffffffffffffffffffff16815260200191505060206040518083038186803b158015610f7d57600080fd5b505afa158015610f91573d6000803e3d6000fd5b505050506040513d6020811015610fa757600080fd5b810190808051906020019092919050505092505050600089856dffffffffffffffffffffffffffff16038311610fde576000610ff4565b89856dffffffffffffffffffffffffffff160383035b9050600089856dffffffffffffffffffffffffffff1603831161101857600061102e565b89856dffffffffffffffffffffffffffff160383035b9050600082118061103f5750600081115b611094576040517f08c379a0000000000000000000000000000000000000000000000000000000008152600401808060200182810382526024815260200180613a186024913960400191505060405180910390fd5b60006110d06110ad600385612d3f90919063ffffffff16565b6110c26103e888612d3f90919063ffffffff16565b612dd490919063ffffffff16565b9050600061110e6110eb600385612d3f90919063ffffffff16565b6111006103e888612d3f90919063ffffffff16565b612dd490919063ffffffff16565b9050611158620f424061114a896dffffffffffffffffffffffffffff168b6dffffffffffffffffffffffffffff16612d3f90919063ffffffff16565b612d3f90919063ffffffff16565b61116b8284612d3f90919063ffffffff16565b10156111df576040517f08c379a000000000000000000000000000000000000000000000000000000000815260040180806020018281038252600c8152602001807f556e697377617056323a204b000000000000000000000000000000000000000081525060200191505060405180910390fd5b50506111ed84848888612e57565b8873ffffffffffffffffffffffffffffffffffffffff163373ffffffffffffffffffffffffffffffffffffffff167fd78ad95fa46c994b6551d0da85fc275fe613ce37657fb8d5e3d130840159d82284848f8f6040518085815260200184815260200183815260200182815260200194505050505060405180910390a35050505050506001600c819055505050505050565b6040518060400160405280600a81526020017f556e69737761702056320000000000000000000000000000000000000000000081525081565b6000806000600860009054906101000a90046dffffffffffffffffffffffffffff1692506008600e9054906101000a90046dffffffffffffffffffffffffffff1691506008601c9054906101000a900463ffffffff169050909192565b60006113223384846131d5565b6001905092915050565b600660009054906101000a900473ffffffffffffffffffffffffffffffffffffffff1681565b60005481565b60007fffffffffffffffffffffffffffffffffffffffffffffffffffffffffffffffff600260008673ffffffffffffffffffffffffffffffffffffffff1673ffffffffffffffffffffffffffffffffffffffff16815260200190815260200160002060003373ffffffffffffffffffffffffffffffffffffffff1673ffffffffffffffffffffffffffffffffffffffff168152602001908152602001600020541461150d5761148c82600260008773ffffffffffffffffffffffffffffffffffffffff1673ffffffffffffffffffffffffffffffffffffffff16815260200190815260200160002060003373ffffffffffffffffffffffffffffffffffffffff1673ffffffffffffffffffffffffffffffffffffffff16815260200190815260200160002054612dd490919063ffffffff16565b600260008673ffffffffffffffffffffffffffffffffffffffff1673ffffffffffffffffffffffffffffffffffffffff16815260200190815260200160002060003373ffffffffffffffffffffffffffffffffffffffff1673ffffffffffffffffffffffffffffffffffffffff168152602001908152602001600020819055505b6115188484846132c0565b600190509392505050565b7f6e71edae12b1b97f4d1f60370fef10105fa2faae0126114a169c64845d6126c960001b81565b601281565b60035481565b61155f8282613454565b5050565b600560009054906101000a900473ffffffffffffffffffffffffffffffffffffffff1673ffffffffffffffffffffffffffffffffffffffff163373ffffffffffffffffffffffffffffffffffffffff1614611626576040517f08c379a00000000000000000000000000000000000000000000000000000000081526004018080602001828103825260148152602001807f556e697377617056323a20464f5242494444454e00000000000000000000000081525060200191505060405180910390fd5b81600660006101000a81548173ffffffffffffffffffffffffffffffffffffffff021916908373ffffffffffffffffffffffffffffffffffffffff16021790555080600760006101000a81548173ffffffffffffffffffffffffffffffffffffffff021916908373ffffffffffffffffffffffffffffffffffffffff1602179055505050565b60095481565b600a5481565b60006001600c5414611732576040517f08c379a00000000000000000000000000000000000000000000000000000000081526004018080602001828103825260118152602001807f556e697377617056323a204c4f434b454400000000000000000000000000000081525060200191505060405180910390fd5b6000600c819055506000806117456112b8565b50915091506000600660009054906101000a900473ffffffffffffffffffffffffffffffffffffffff1673ffffffffffffffffffffffffffffffffffffffff166370a08231306040518263ffffffff1660e01b8152600401808273ffffffffffffffffffffffffffffffffffffffff1673ffffffffffffffffffffffffffffffffffffffff16815260200191505060206040518083038186803b1580156117eb57600080fd5b505afa1580156117ff573d6000803e3d6000fd5b505050506040513d602081101561181557600080fd5b810190808051906020019092919050505090506000600760009054906101000a900473ffffffffffffffffffffffffffffffffffffffff1673ffffffffffffffffffffffffffffffffffffffff166370a08231306040518263ffffffff1660e01b8152600401808273ffffffffffffffffffffffffffffffffffffffff1673ffffffffffffffffffffffffffffffffffffffff16815260200191505060206040518083038186803b1580156118c957600080fd5b505afa1580156118dd573d6000803e3d6000fd5b505050506040513d60208110156118f357600080fd5b81019080805190602001909291905050509050600061192b856dffffffffffffffffffffffffffff1684612dd490919063ffffffff16565b90506000611952856dffffffffffffffffffffffffffff1684612dd490919063ffffffff16565b90506000611960878761356e565b905060008054905060008114156119b4576119a06103e861199261198d8688612d3f90919063ffffffff16565b61374f565b612dd490919063ffffffff16565b98506119af60006103e8613454565b611a17565b611a14886dffffffffffffffffffffffffffff166119db8387612d3f90919063ffffffff16565b816119e257fe5b04886dffffffffffffffffffffffffffff16611a078487612d3f90919063ffffffff16565b81611a0e57fe5b046137b1565b98505b60008911611a70576040517f08c379a0000000000000000000000000000000000000000000000000000000008152600401808060200182810382526028815260200180613a856028913960400191505060405180910390fd5b611a7a8a8a613454565b611a8686868a8a612e57565b8115611afe57611af76008600e9054906101000a90046dffffffffffffffffffffffffffff166dffffffffffffffffffffffffffff16600860009054906101000a90046dffffffffffffffffffffffffffff166dffffffffffffffffffffffffffff16612d3f90919063ffffffff16565b600b819055505b3373ffffffffffffffffffffffffffffffffffffffff167f4c209b5fc8ad50758f13e2e1088ba56a560dff690a1c6fef26394f4c03821c4f8585604051808381526020018281526020019250505060405180910390a250505050505050506001600c81905550919050565b60016020528060005260406000206000915090505481565b600b5481565b60046020528060005260406000206000915090505481565b6000806001600c5414611c1a576040517f08c379a00000000000000000000000000000000000000000000000000000000081526004018080602001828103825260118152602001807f556e697377617056323a204c4f434b454400000000000000000000000000000081525060200191505060405180910390fd5b6000600c81905550600080611c2d6112b8565b50915091506000600660009054906101000a900473ffffffffffffffffffffffffffffffffffffffff1690506000600760009054906101000a900473ffffffffffffffffffffffffffffffffffffffff16905060008273ffffffffffffffffffffffffffffffffffffffff166370a08231306040518263ffffffff1660e01b8152600401808273ffffffffffffffffffffffffffffffffffffffff1673ffffffffffffffffffffffffffffffffffffffff16815260200191505060206040518083038186803b158015611cff57600080fd5b505afa158015611d13573d6000803e3d6000fd5b505050506040513d6020811015611d2957600080fd5b8101908080519060200190929190505050905060008273ffffffffffffffffffffffffffffffffffffffff166370a08231306040518263ffffffff1660e01b8152600401808273ffffffffffffffffffffffffffffffffffffffff1673ffffffffffffffffffffffffffffffffffffffff16815260200191505060206040518083038186803b158015611dbb57600080fd5b505afa158015611dcf573d6000803e3d6000fd5b505050506040513d6020811015611de557600080fd5b810190808051906020019092919050505090506000600160003073ffffffffffffffffffffffffffffffffffffffff1673ffffffffffffffffffffffffffffffffffffffff1681526020019081526020016000205490506000611e48888861356e565b905060008054905080611e648685612d3f90919063ffffffff16565b81611e6b57fe5b049a5080611e828585612d3f90919063ffffffff16565b81611e8957fe5b04995060008b118015611e9c575060008a115b611ef1576040517f08c379a0000000000000000000000000000000000000000000000000000000008152600401808060200182810382526028815260200180613a5d6028913960400191505060405180910390fd5b611efb30846137ca565b611f06878d8d612af2565b611f11868d8c612af2565b8673ffffffffffffffffffffffffffffffffffffffff166370a08231306040518263ffffffff1660e01b8152600401808273ffffffffffffffffffffffffffffffffffffffff1673ffffffffffffffffffffffffffffffffffffffff16815260200191505060206040518083038186803b158015611f8e57600080fd5b505afa158015611fa2573d6000803e3d6000fd5b505050506040513d6020811015611fb857600080fd5b810190808051906020019092919050505094508573ffffffffffffffffffffffffffffffffffffffff166370a08231306040518263ffffffff1660e01b8152600401808273ffffffffffffffffffffffffffffffffffffffff1673ffffffffffffffffffffffffffffffffffffffff16815260200191505060206040518083038186803b15801561204857600080fd5b505afa15801561205c573d6000803e3d6000fd5b505050506040513d602081101561207257600080fd5b8101908080519060200190929190505050935061209185858b8b612e57565b8115612109576121026008600e9054906101000a90046dffffffffffffffffffffffffffff166dffffffffffffffffffffffffffff16600860009054906101000a90046dffffffffffffffffffffffffffff166dffffffffffffffffffffffffffff16612d3f90919063ffffffff16565b600b819055505b8b73ffffffffffffffffffffffffffffffffffffffff163373ffffffffffffffffffffffffffffffffffffffff167fdccd412f0b1252819cb1fd330b93224ca42612892bb3f4f789976e6d819364968d8d604051808381526020018281526020019250505060405180910390a35050505050505050506001600c81905550915091565b6040518060400160405280600681526020017f554e492d5632000000000000000000000000000000000000000000000000000081525081565b60006121d23384846132c0565b6001905092915050565b6103e881565b6001600c541461225a576040517f08c379a00000000000000000000000000000000000000000000000000000000081526004018080602001828103825260118152602001807f556e697377617056323a204c4f434b454400000000000000000000000000000081525060200191505060405180910390fd5b6000600c819055506000600660009054906101000a900473ffffffffffffffffffffffffffffffffffffffff1690506000600760009054906101000a900473ffffffffffffffffffffffffffffffffffffffff1690506123b082846123ab600860009054906101000a90046dffffffffffffffffffffffffffff166dffffffffffffffffffffffffffff168673ffffffffffffffffffffffffffffffffffffffff166370a08231306040518263ffffffff1660e01b8152600401808273ffffffffffffffffffffffffffffffffffffffff1673ffffffffffffffffffffffffffffffffffffffff16815260200191505060206040518083038186803b15801561236257600080fd5b505afa158015612376573d6000803e3d6000fd5b505050506040513d602081101561238c57600080fd5b8101908080519060200190929190505050612dd490919063ffffffff16565b612af2565b6124b081846124ab6008600e9054906101000a90046dffffffffffffffffffffffffffff166dffffffffffffffffffffffffffff168573ffffffffffffffffffffffffffffffffffffffff166370a08231306040518263ffffffff1660e01b8152600401808273ffffffffffffffffffffffffffffffffffffffff1673ffffffffffffffffffffffffffffffffffffffff16815260200191505060206040518083038186803b15801561246257600080fd5b505afa158015612476573d6000803e3d6000fd5b505050506040513d602081101561248c57600080fd5b8101908080519060200190929190505050612dd490919063ffffffff16565b612af2565b50506001600c8190555050565b600560009054906101000a900473ffffffffffffffffffffffffffffffffffffffff1681565b600760009054906101000a900473ffffffffffffffffffffffffffffffffffffffff1681565b4284101561257f576040517f08c379a00000000000000000000000000000000000000000000000000000000081526004018080602001828103825260128152602001807f556e697377617056323a2045585049524544000000000000000000000000000081525060200191505060405180910390fd5b60006003547f6e71edae12b1b97f4d1f60370fef10105fa2faae0126114a169c64845d6126c960001b898989600460008e73ffffffffffffffffffffffffffffffffffffffff1673ffffffffffffffffffffffffffffffffffffffff1681526020019081526020016000206000815480929190600101919050558a604051602001808781526020018673ffffffffffffffffffffffffffffffffffffffff1673ffffffffffffffffffffffffffffffffffffffff1681526020018573ffffffffffffffffffffffffffffffffffffffff1673ffffffffffffffffffffffffffffffffffffffff16815260200184815260200183815260200182815260200196505050505050506040516020818303038152906040528051906020012060405160200180807f190100000000000000000000000000000000000000000000000000000000000081525060020183815260200182815260200192505050604051602081830303815290604052805190602001209050600060018286868660405160008152602001604052604051808581526020018460ff1660ff1681526020018381526020018281526020019450505050506020604051602081039080840390855afa158015612751573d6000803e3d6000fd5b505050602060405103519050600073ffffffffffffffffffffffffffffffffffffffff168173ffffffffffffffffffffffffffffffffffffffff16141580156127c557508873ffffffffffffffffffffffffffffffffffffffff168173ffffffffffffffffffffffffffffffffffffffff16145b612837576040517f08c379a000000000000000000000000000000000000000000000000000000000815260040180806020018281038252601c8152602001807f556e697377617056323a20494e56414c49445f5349474e41545552450000000081525060200191505060405180910390fd5b6128428989896131d5565b505050505050505050565b6002602052816000526040600020602052806000526040600020600091509150505481565b6001600c54146128ea576040517f08c379a00000000000000000000000000000000000000000000000000000000081526004018080602001828103825260118152602001807f556e697377617056323a204c4f434b454400000000000000000000000000000081525060200191505060405180910390fd5b6000600c81905550612ae8600660009054906101000a900473ffffffffffffffffffffffffffffffffffffffff1673ffffffffffffffffffffffffffffffffffffffff166370a08231306040518263ffffffff1660e01b8152600401808273ffffffffffffffffffffffffffffffffffffffff1673ffffffffffffffffffffffffffffffffffffffff16815260200191505060206040518083038186803b15801561299457600080fd5b505afa1580156129a8573d6000803e3d6000fd5b505050506040513d60208110156129be57600080fd5b8101908080519060200190929190505050600760009054906101000a900473ffffffffffffffffffffffffffffffffffffffff1673ffffffffffffffffffffffffffffffffffffffff166370a08231306040518263ffffffff1660e01b8152600401808273ffffffffffffffffffffffffffffffffffffffff1673ffffffffffffffffffffffffffffffffffffffff16815260200191505060206040518083038186803b158015612a6e57600080fd5b505afa158015612a82573d6000803e3d6000fd5b505050506040513d6020811015612a9857600080fd5b8101908080519060200190929190505050600860009054906101000a90046dffffffffffffffffffffffffffff166008600e9054906101000a90046dffffffffffffffffffffffffffff16612e57565b6001600c81905550565b600060608473ffffffffffffffffffffffffffffffffffffffff166040518060400160405280601981526020017f7472616e7366657228616464726573732c75696e743235362900000000000000815250805190602001208585604051602401808373ffffffffffffffffffffffffffffffffffffffff1673ffffffffffffffffffffffffffffffffffffffff16815260200182815260200192505050604051602081830303815290604052907bffffffffffffffffffffffffffffffffffffffffffffffffffffffff19166020820180517bffffffffffffffffffffffffffffffffffffffffffffffffffffffff83818316178352505050506040518082805190602001908083835b60208310612c1f5780518252602082019150602081019050602083039250612bfc565b6001836020036101000a0380198251168184511680821785525050505050509050019150506000604051808303816000865af19150503d8060008114612c81576040519150601f19603f3d011682016040523d82523d6000602084013e612c86565b606091505b5091509150818015612cc65750600081511480612cc55750808060200190516020811015612cb357600080fd5b81019080805190602001909291905050505b5b612d38576040517f08c379a000000000000000000000000000000000000000000000000000000000815260040180806020018281038252601a8152602001807f556e697377617056323a205452414e534645525f4641494c454400000000000081525060200191505060405180910390fd5b5050505050565b600080821480612d5c5750828283850292508281612d5957fe5b04145b612dce576040517f08c379a00000000000000000000000000000000000000000000000000000000081526004018080602001828103825260148152602001807f64732d6d6174682d6d756c2d6f766572666c6f7700000000000000000000000081525060200191505060405180910390fd5b92915050565b6000828284039150811115612e51576040517f08c379a00000000000000000000000000000000000000000000000000000000081526004018080602001828103825260158152602001807f64732d6d6174682d7375622d756e646572666c6f77000000000000000000000081525060200191505060405180910390fd5b92915050565b7fffffffffffffffffffffffffffffffffffffffffffffffffffffffffffffffff6dffffffffffffffffffffffffffff168411158015612ec757507fffffffffffffffffffffffffffffffffffffffffffffffffffffffffffffffff6dffffffffffffffffffffffffffff168311155b612f39576040517f08c379a00000000000000000000000000000000000000000000000000000000081526004018080602001828103825260138152602001807f556e697377617056323a204f564552464c4f570000000000000000000000000081525060200191505060405180910390fd5b60006401000000004281612f4957fe5b06905060006008601c9054906101000a900463ffffffff168203905060008163ffffffff16118015612f8c57506000846dffffffffffffffffffffffffffff1614155b8015612fa957506000836dffffffffffffffffffffffffffff1614155b1561308b578063ffffffff16612fee85612fc2866138e4565b7bffffffffffffffffffffffffffffffffffffffffffffffffffffffff1661390f90919063ffffffff16565b7bffffffffffffffffffffffffffffffffffffffffffffffffffffffff16026009600082825401925050819055508063ffffffff1661305c84613030876138e4565b7bffffffffffffffffffffffffffffffffffffffffffffffffffffffff1661390f90919063ffffffff16565b7bffffffffffffffffffffffffffffffffffffffffffffffffffffffff1602600a600082825401925050819055505b85600860006101000a8154816dffffffffffffffffffffffffffff02191690836dffffffffffffffffffffffffffff160217905550846008600e6101000a8154816dffffffffffffffffffffffffffff02191690836dffffffffffffffffffffffffffff160217905550816008601c6101000a81548163ffffffff021916908363ffffffff1602179055507f1c411e9a96e071241c2f21f7726b17ae89e3cab4c78be50e062b03a9fffbbad1600860009054906101000a90046dffffffffffffffffffffffffffff166008600e9054906101000a90046dffffffffffffffffffffffffffff1660405180836dffffffffffffffffffffffffffff166dffffffffffffffffffffffffffff168152602001826dffffffffffffffffffffffffffff166dffffffffffffffffffffffffffff1681526020019250505060405180910390a1505050505050565b80600260008573ffffffffffffffffffffffffffffffffffffffff1673ffffffffffffffffffffffffffffffffffffffff16815260200190815260200160002060008473ffffffffffffffffffffffffffffffffffffffff1673ffffffffffffffffffffffffffffffffffffffff168152602001908152602001600020819055508173ffffffffffffffffffffffffffffffffffffffff168373ffffffffffffffffffffffffffffffffffffffff167f8c5be1e5ebec7d5bd14f71427d1e84f3dd0314c0f7b2291e5b200ac8c7c3b925836040518082815260200191505060405180910390a3505050565b61331281600160008673ffffffffffffffffffffffffffffffffffffffff1673ffffffffffffffffffffffffffffffffffffffff16815260200190815260200160002054612dd490919063ffffffff16565b600160008573ffffffffffffffffffffffffffffffffffffffff1673ffffffffffffffffffffffffffffffffffffffff168152602001908152602001600020819055506133a781600160008573ffffffffffffffffffffffffffffffffffffffff1673ffffffffffffffffffffffffffffffffffffffff1681526020019081526020016000205461396f90919063ffffffff16565b600160008473ffffffffffffffffffffffffffffffffffffffff1673ffffffffffffffffffffffffffffffffffffffff168152602001908152602001600020819055508173ffffffffffffffffffffffffffffffffffffffff168373ffffffffffffffffffffffffffffffffffffffff167fddf252ad1be2c89b69c2b068fc378daa952ba7f163c4a11628f55a4df523b3ef836040518082815260200191505060405180910390a3505050565b6134698160005461396f90919063ffffffff16565b6000819055506134c181600160008573ffffffffffffffffffffffffffffffffffffffff1673ffffffffffffffffffffffffffffffffffffffff1681526020019081526020016000205461396f90919063ffffffff16565b600160008473ffffffffffffffffffffffffffffffffffffffff1673ffffffffffffffffffffffffffffffffffffffff168152602001908152602001600020819055508173ffffffffffffffffffffffffffffffffffffffff16600073ffffffffffffffffffffffffffffffffffffffff167fddf252ad1be2c89b69c2b068fc378daa952ba7f163c4a11628f55a4df523b3ef836040518082815260200191505060405180910390a35050565b600080600560009054906101000a900473ffffffffffffffffffffffffffffffffffffffff1673ffffffffffffffffffffffffffffffffffffffff1663017e7e586040518163ffffffff1660e01b815260040160206040518083038186803b1580156135d957600080fd5b505afa1580156135ed573d6000803e3d6000fd5b505050506040513d602081101561360357600080fd5b81019080805190602001909291905050509050600073ffffffffffffffffffffffffffffffffffffffff168173ffffffffffffffffffffffffffffffffffffffff16141591506000600b5490508215613735576000811461373057600061369b613696866dffffffffffffffffffffffffffff16886dffffffffffffffffffffffffffff16612d3f90919063ffffffff16565b61374f565b905060006136a88361374f565b90508082111561372d5760006136db6136ca8385612dd490919063ffffffff16565b600054612d3f90919063ffffffff16565b90506000613705836136f7600587612d3f90919063ffffffff16565b61396f90919063ffffffff16565b9050600081838161371257fe5b0490506000811115613729576137288782613454565b5b5050505b50505b613747565b60008114613746576000600b819055505b5b505092915050565b6000600382111561379e57819050600060016002848161376b57fe5b040190505b818110156137985780915060028182858161378757fe5b04018161379057fe5b049050613770565b506137ac565b600082146137ab57600190505b5b919050565b60008183106137c057816137c2565b825b905092915050565b61381c81600160008573ffffffffffffffffffffffffffffffffffffffff1673ffffffffffffffffffffffffffffffffffffffff16815260200190815260200160002054612dd490919063ffffffff16565b600160008473ffffffffffffffffffffffffffffffffffffffff1673ffffffffffffffffffffffffffffffffffffffff1681526020019081526020016000208190555061387481600054612dd490919063ffffffff16565b600081905550600073ffffffffffffffffffffffffffffffffffffffff168273ffffffffffffffffffffffffffffffffffffffff167fddf252ad1be2c89b69c2b068fc378daa952ba7f163c4a11628f55a4df523b3ef836040518082815260200191505060405180910390a35050565b60006e010000000000000000000000000000826dffffffffffffffffffffffffffff16029050919050565b6000816dffffffffffffffffffffffffffff167bffffffffffffffffffffffffffffffffffffffffffffffffffffffff16837bffffffffffffffffffffffffffffffffffffffffffffffffffffffff168161396657fe5b04905092915050565b60008282840191508110156139ec576040517f08c379a00000000000000000000000000000000000000000000000000000000081526004018080602001828103825260148152602001807f64732d6d6174682d6164642d6f766572666c6f7700000000000000000000000081525060200191505060405180910390fd5b9291505056fe556e697377617056323a20494e53554646494349454e545f4f55545055545f414d4f554e54556e697377617056323a20494e53554646494349454e545f494e5055545f414d4f554e54556e697377617056323a20494e53554646494349454e545f4c4951554944495459556e697377617056323a20494e53554646494349454e545f4c49515549444954595f4255524e4544556e697377617056323a20494e53554646494349454e545f4c49515549444954595f4d494e544544a2646970667358221220f176ff7e81b9b227b93ea43713585b7ddb8a221c05391092e2a9fd833a0e065b64736f6c63430006060033454950373132446f6d61696e28737472696e67206e616d652c737472696e672076657273696f6e2c75696e7432353620636861696e49642c6164647265737320766572696679696e67436f6e747261637429a2646970667358221220172b3ca153f8c4d9bc8ee1493a86566b621cd0cdcfe468ead4e421a38f13440c64736f6c6343000606003360c060405234801561001057600080fd5b5060405162005115380380620051158339818101604052604081101561003557600080fd5b8101908080519060200190929190805190602001909291905050508173ffffffffffffffffffffffffffffffffffffffff1660808173ffffffffffffffffffffffffffffffffffffffff1660601b815250508073ffffffffffffffffffffffffffffffffffffffff1660a08173ffffffffffffffffffffffffffffffffffffffff1660601b81525050505060805160601c60a05160601c614f59620001bc6000398061011f528061118052806111be52806112ee52806115cc5280611b405280611e1b5280611f62528061212a52806121bf52806126135280612a515280612def5280612e485280612e7c5280612efd528061313d528061330252806133975250806113e052806114ec528061169f52806116d752806118d052806119dc5280611c325280611d3b528061204f52806121fe528061241f528061252852806126cc52806129ce52806129f75280612a2f5280612c615280612e26528061322a52806133d65280613fb85280613ffc528061459252806146ba52806147d05250614f596000f3fe6080604052600436106101185760003560e01c80638803dbee116100a0578063d06ca61f11610064578063d06ca61f14610c64578063ded9382a14610d88578063e8e3370014610e6a578063f305d71914610f50578063fb3bdb4114610ffe57610174565b80638803dbee14610966578063ad5c464814610a7f578063ad615dec14610ad6578063baa2abde14610b39578063c45a015514610c0d57610174565b80632195995c116100e75780632195995c146104cd57806338ed1739146105cf5780634a25d94a146106e85780637ff36ab51461080157806385f8c2591461090357610174565b806302751cec14610179578063054d50d41461022d57806318cbafe5146102905780631f00ca74146103a957610174565b36610174577f000000000000000000000000000000000000000000000000000000000000000073ffffffffffffffffffffffffffffffffffffffff163373ffffffffffffffffffffffffffffffffffffffff161461017257fe5b005b600080fd5b34801561018557600080fd5b50610210600480360360c081101561019c57600080fd5b81019080803573ffffffffffffffffffffffffffffffffffffffff169060200190929190803590602001909291908035906020019092919080359060200190929190803573ffffffffffffffffffffffffffffffffffffffff16906020019092919080359060200190929190505050611100565b604051808381526020018281526020019250505060405180910390f35b34801561023957600080fd5b5061027a6004803603606081101561025057600080fd5b8101908080359060200190929190803590602001909291908035906020019092919050505061125d565b6040518082815260200191505060405180910390f35b34801561029c57600080fd5b50610352600480360360a08110156102b357600080fd5b810190808035906020019092919080359060200190929190803590602001906401000000008111156102e457600080fd5b8201836020820111156102f657600080fd5b8035906020019184602083028401116401000000008311171561031857600080fd5b9091929391929390803573ffffffffffffffffffffffffffffffffffffffff16906020019092919080359060200190929190505050611273565b6040518080602001828103825283818151815260200191508051906020019060200280838360005b8381101561039557808201518184015260208101905061037a565b505050509050019250505060405180910390f35b3480156103b557600080fd5b50610476600480360360408110156103cc57600080fd5b8101908080359060200190929190803590602001906401000000008111156103f357600080fd5b82018360208201111561040557600080fd5b8035906020019184602083028401116401000000008311171561042757600080fd5b919080806020026020016040519081016040528093929190818152602001838360200280828437600081840152601f19601f820116905080830192505050505050509192919290505050611698565b6040518080602001828103825283818151815260200191508051906020019060200280838360005b838110156104b957808201518184015260208101905061049e565b505050509050019250505060405180910390f35b3480156104d957600080fd5b506105b260048036036101608110156104f157600080fd5b81019080803573ffffffffffffffffffffffffffffffffffffffff169060200190929190803573ffffffffffffffffffffffffffffffffffffffff169060200190929190803590602001909291908035906020019092919080359060200190929190803573ffffffffffffffffffffffffffffffffffffffff16906020019092919080359060200190929190803515159060200190929190803560ff16906020019092919080359060200190929190803590602001909291905050506116cd565b604051808381526020018281526020019250505060405180910390f35b3480156105db57600080fd5b50610691600480360360a08110156105f257600080fd5b8101908080359060200190929190803590602001909291908035906020019064010000000081111561062357600080fd5b82018360208201111561063557600080fd5b8035906020019184602083028401116401000000008311171561065757600080fd5b9091929391929390803573ffffffffffffffffffffffffffffffffffffffff16906020019092919080359060200190929190505050611852565b6040518080602001828103825283818151815260200191508051906020019060200280838360005b838110156106d45780820151818401526020810190506106b9565b505050509050019250505060405180910390f35b3480156106f457600080fd5b506107aa600480360360a081101561070b57600080fd5b8101908080359060200190929190803590602001909291908035906020019064010000000081111561073c57600080fd5b82018360208201111561074e57600080fd5b8035906020019184602083028401116401000000008311171561077057600080fd5b9091929391929390803573ffffffffffffffffffffffffffffffffffffffff16906020019092919080359060200190929190505050611ac5565b6040518080602001828103825283818151815260200191508051906020019060200280838360005b838110156107ed5780820151818401526020810190506107d2565b505050509050019250505060405180910390f35b6108ac6004803603608081101561081757600080fd5b81019080803590602001909291908035906020019064010000000081111561083e57600080fd5b82018360208201111561085057600080fd5b8035906020019184602083028401116401000000008311171561087257600080fd5b9091929391929390803573ffffffffffffffffffffffffffffffffffffffff16906020019092919080359060200190929190505050611ee7565b6040518080602001828103825283818151815260200191508051906020019060200280838360005b838110156108ef5780820151818401526020810190506108d4565b505050509050019250505060405180910390f35b34801561090f57600080fd5b506109506004803603606081101561092657600080fd5b8101908080359060200190929190803590602001909291908035906020019092919050505061238b565b6040518082815260200191505060405180910390f35b34801561097257600080fd5b50610a28600480360360a081101561098957600080fd5b810190808035906020019092919080359060200190929190803590602001906401000000008111156109ba57600080fd5b8201836020820111156109cc57600080fd5b803590602001918460208302840111640100000000831117156109ee57600080fd5b9091929391929390803573ffffffffffffffffffffffffffffffffffffffff169060200190929190803590602001909291905050506123a1565b6040518080602001828103825283818151815260200191508051906020019060200280838360005b83811015610a6b578082015181840152602081019050610a50565b505050509050019250505060405180910390f35b348015610a8b57600080fd5b50610a94612611565b604051808273ffffffffffffffffffffffffffffffffffffffff1673ffffffffffffffffffffffffffffffffffffffff16815260200191505060405180910390f35b348015610ae257600080fd5b50610b2360048036036060811015610af957600080fd5b81019080803590602001909291908035906020019092919080359060200190929190505050612635565b6040518082815260200191505060405180910390f35b348015610b4557600080fd5b50610bf0600480360360e0811015610b5c57600080fd5b81019080803573ffffffffffffffffffffffffffffffffffffffff169060200190929190803573ffffffffffffffffffffffffffffffffffffffff169060200190929190803590602001909291908035906020019092919080359060200190929190803573ffffffffffffffffffffffffffffffffffffffff1690602001909291908035906020019092919050505061264b565b604051808381526020018281526020019250505060405180910390f35b348015610c1957600080fd5b50610c226129cc565b604051808273ffffffffffffffffffffffffffffffffffffffff1673ffffffffffffffffffffffffffffffffffffffff16815260200191505060405180910390f35b348015610c7057600080fd5b50610d3160048036036040811015610c8757600080fd5b810190808035906020019092919080359060200190640100000000811115610cae57600080fd5b820183602082011115610cc057600080fd5b80359060200191846020830284011164010000000083111715610ce257600080fd5b919080806020026020016040519081016040528093929190818152602001838360200280828437600081840152601f19601f8201169050808301925050505050505091929192905050506129f0565b6040518080602001828103825283818151815260200191508051906020019060200280838360005b83811015610d74578082015181840152602081019050610d59565b505050509050019250505060405180910390f35b348015610d9457600080fd5b50610e4d6004803603610140811015610dac57600080fd5b81019080803573ffffffffffffffffffffffffffffffffffffffff169060200190929190803590602001909291908035906020019092919080359060200190929190803573ffffffffffffffffffffffffffffffffffffffff16906020019092919080359060200190929190803515159060200190929190803560ff1690602001909291908035906020019092919080359060200190929190505050612a25565b604051808381526020018281526020019250505060405180910390f35b348015610e7657600080fd5b50610f2c6004803603610100811015610e8e57600080fd5b81019080803573ffffffffffffffffffffffffffffffffffffffff169060200190929190803573ffffffffffffffffffffffffffffffffffffffff16906020019092919080359060200190929190803590602001909291908035906020019092919080359060200190929190803573ffffffffffffffffffffffffffffffffffffffff16906020019092919080359060200190929190505050612bc8565b60405180848152602001838152602001828152602001935050505060405180910390f35b610fda600480360360c0811015610f6657600080fd5b81019080803573ffffffffffffffffffffffffffffffffffffffff169060200190929190803590602001909291908035906020019092919080359060200190929190803573ffffffffffffffffffffffffffffffffffffffff16906020019092919080359060200190929190505050612d6d565b60405180848152602001838152602001828152602001935050505060405180910390f35b6110a96004803603608081101561101457600080fd5b81019080803590602001909291908035906020019064010000000081111561103b57600080fd5b82018360208201111561104d57600080fd5b8035906020019184602083028401116401000000008311171561106f57600080fd5b9091929391929390803573ffffffffffffffffffffffffffffffffffffffff169060200190929190803590602001909291905050506130c2565b6040518080602001828103825283818151815260200191508051906020019060200280838360005b838110156110ec5780820151818401526020810190506110d1565b505050509050019250505060405180910390f35b600080824281101561117a576040517f08c379a00000000000000000000000000000000000000000000000000000000081526004018080602001828103825260188152602001807f556e69737761705632526f757465723a2045585049524544000000000000000081525060200191505060405180910390fd5b6111a9897f00000000000000000000000000000000000000000000000000000000000000008a8a8a308a61264b565b80935081945050506111bc8986856135a0565b7f000000000000000000000000000000000000000000000000000000000000000073ffffffffffffffffffffffffffffffffffffffff16632e1a7d4d836040518263ffffffff1660e01b815260040180828152602001915050600060405180830381600087803b15801561122f57600080fd5b505af1158015611243573d6000803e3d6000fd5b50505050611251858361377c565b50965096945050505050565b600061126a8484846138db565b90509392505050565b606081428110156112ec576040517f08c379a00000000000000000000000000000000000000000000000000000000081526004018080602001828103825260188152602001807f556e69737761705632526f757465723a2045585049524544000000000000000081525060200191505060405180910390fd5b7f000000000000000000000000000000000000000000000000000000000000000073ffffffffffffffffffffffffffffffffffffffff1686866001898990500381811061133557fe5b9050602002013573ffffffffffffffffffffffffffffffffffffffff1673ffffffffffffffffffffffffffffffffffffffff16146113db576040517f08c379a000000000000000000000000000000000000000000000000000000000815260040180806020018281038252601d8152602001807f556e69737761705632526f757465723a20494e56414c49445f5041544800000081525060200191505060405180910390fd5b6114477f000000000000000000000000000000000000000000000000000000000000000089888880806020026020016040519081016040528093929190818152602001838360200280828437600081840152601f19601f82011690508083019250505050505050613a0b565b9150868260018451038151811061145a57fe5b602002602001015110156114b9576040517f08c379a000000000000000000000000000000000000000000000000000000000815260040180806020018281038252602b815260200180614ea1602b913960400191505060405180910390fd5b61157e868660008181106114c957fe5b9050602002013573ffffffffffffffffffffffffffffffffffffffff16336115647f00000000000000000000000000000000000000000000000000000000000000008a8a600081811061151857fe5b9050602002013573ffffffffffffffffffffffffffffffffffffffff168b8b600181811061154257fe5b9050602002013573ffffffffffffffffffffffffffffffffffffffff16613b83565b8560008151811061157157fe5b6020026020010151613cde565b6115ca82878780806020026020016040519081016040528093929190818152602001838360200280828437600081840152601f19601f8201169050808301925050505050505030613eef565b7f000000000000000000000000000000000000000000000000000000000000000073ffffffffffffffffffffffffffffffffffffffff16632e1a7d4d8360018551038151811061161657fe5b60200260200101516040518263ffffffff1660e01b815260040180828152602001915050600060405180830381600087803b15801561165457600080fd5b505af1158015611668573d6000803e3d6000fd5b5050505061168d848360018551038151811061168057fe5b602002602001015161377c565b509695505050505050565b60606116c57f0000000000000000000000000000000000000000000000000000000000000000848461419a565b905092915050565b60008060006116fd7f00000000000000000000000000000000000000000000000000000000000000008f8f613b83565b905060008761170c578c61172e565b7fffffffffffffffffffffffffffffffffffffffffffffffffffffffffffffffff5b90508173ffffffffffffffffffffffffffffffffffffffff1663d505accf3330848d8c8c8c6040518863ffffffff1660e01b8152600401808873ffffffffffffffffffffffffffffffffffffffff1673ffffffffffffffffffffffffffffffffffffffff1681526020018773ffffffffffffffffffffffffffffffffffffffff1673ffffffffffffffffffffffffffffffffffffffff1681526020018681526020018581526020018460ff1660ff168152602001838152602001828152602001975050505050505050600060405180830381600087803b15801561181157600080fd5b505af1158015611825573d6000803e3d6000fd5b505050506118388f8f8f8f8f8f8f61264b565b809450819550505050509b509b9950505050505050505050565b606081428110156118cb576040517f08c379a00000000000000000000000000000000000000000000000000000000081526004018080602001828103825260188152602001807f556e69737761705632526f757465723a2045585049524544000000000000000081525060200191505060405180910390fd5b6119377f000000000000000000000000000000000000000000000000000000000000000089888880806020026020016040519081016040528093929190818152602001838360200280828437600081840152601f19601f82011690508083019250505050505050613a0b565b9150868260018451038151811061194a57fe5b602002602001015110156119a9576040517f08c379a000000000000000000000000000000000000000000000000000000000815260040180806020018281038252602b815260200180614ea1602b913960400191505060405180910390fd5b611a6e868660008181106119b957fe5b9050602002013573ffffffffffffffffffffffffffffffffffffffff1633611a547f00000000000000000000000000000000000000000000000000000000000000008a8a6000818110611a0857fe5b9050602002013573ffffffffffffffffffffffffffffffffffffffff168b8b6001818110611a3257fe5b9050602002013573ffffffffffffffffffffffffffffffffffffffff16613b83565b85600081518110611a6157fe5b6020026020010151613cde565b611aba82878780806020026020016040519081016040528093929190818152602001838360200280828437600081840152601f19601f8201169050808301925050505050505086613eef565b509695505050505050565b60608142811015611b3e576040517f08c379a00000000000000000000000000000000000000000000000000000000081526004018080602001828103825260188152602001807f556e69737761705632526f757465723a2045585049524544000000000000000081525060200191505060405180910390fd5b7f000000000000000000000000000000000000000000000000000000000000000073ffffffffffffffffffffffffffffffffffffffff16868660018989905003818110611b8757fe5b9050602002013573ffffffffffffffffffffffffffffffffffffffff1673ffffffffffffffffffffffffffffffffffffffff1614611c2d576040517f08c379a000000000000000000000000000000000000000000000000000000000815260040180806020018281038252601d8152602001807f556e69737761705632526f757465723a20494e56414c49445f5041544800000081525060200191505060405180910390fd5b611c997f000000000000000000000000000000000000000000000000000000000000000089888880806020026020016040519081016040528093929190818152602001838360200280828437600081840152601f19601f8201169050808301925050505050505061419a565b91508682600081518110611ca957fe5b60200260200101511115611d08576040517f08c379a0000000000000000000000000000000000000000000000000000000008152600401808060200182810382526027815260200180614e546027913960400191505060405180910390fd5b611dcd86866000818110611d1857fe5b9050602002013573ffffffffffffffffffffffffffffffffffffffff1633611db37f00000000000000000000000000000000000000000000000000000000000000008a8a6000818110611d6757fe5b9050602002013573ffffffffffffffffffffffffffffffffffffffff168b8b6001818110611d9157fe5b9050602002013573ffffffffffffffffffffffffffffffffffffffff16613b83565b85600081518110611dc057fe5b6020026020010151613cde565b611e1982878780806020026020016040519081016040528093929190818152602001838360200280828437600081840152601f19601f8201169050808301925050505050505030613eef565b7f000000000000000000000000000000000000000000000000000000000000000073ffffffffffffffffffffffffffffffffffffffff16632e1a7d4d83600185510381518110611e6557fe5b60200260200101516040518263ffffffff1660e01b815260040180828152602001915050600060405180830381600087803b158015611ea357600080fd5b505af1158015611eb7573d6000803e3d6000fd5b50505050611edc8483600185510381518110611ecf57fe5b602002602001015161377c565b509695505050505050565b60608142811015611f60576040517f08c379a00000000000000000000000000000000000000000000000000000000081526004018080602001828103825260188152602001807f556e69737761705632526f757465723a2045585049524544000000000000000081525060200191505060405180910390fd5b7f000000000000000000000000000000000000000000000000000000000000000073ffffffffffffffffffffffffffffffffffffffff1686866000818110611fa457fe5b9050602002013573ffffffffffffffffffffffffffffffffffffffff1673ffffffffffffffffffffffffffffffffffffffff161461204a576040517f08c379a000000000000000000000000000000000000000000000000000000000815260040180806020018281038252601d8152602001807f556e69737761705632526f757465723a20494e56414c49445f5041544800000081525060200191505060405180910390fd5b6120b67f000000000000000000000000000000000000000000000000000000000000000034888880806020026020016040519081016040528093929190818152602001838360200280828437600081840152601f19601f82011690508083019250505050505050613a0b565b915086826001845103815181106120c957fe5b60200260200101511015612128576040517f08c379a000000000000000000000000000000000000000000000000000000000815260040180806020018281038252602b815260200180614ea1602b913960400191505060405180910390fd5b7f000000000000000000000000000000000000000000000000000000000000000073ffffffffffffffffffffffffffffffffffffffff1663d0e30db08360008151811061217157fe5b60200260200101516040518263ffffffff1660e01b81526004016000604051808303818588803b1580156121a457600080fd5b505af11580156121b8573d6000803e3d6000fd5b50505050507f000000000000000000000000000000000000000000000000000000000000000073ffffffffffffffffffffffffffffffffffffffff1663a9059cbb6122767f00000000000000000000000000000000000000000000000000000000000000008989600081811061222a57fe5b9050602002013573ffffffffffffffffffffffffffffffffffffffff168a8a600181811061225457fe5b9050602002013573ffffffffffffffffffffffffffffffffffffffff16613b83565b8460008151811061228357fe5b60200260200101516040518363ffffffff1660e01b8152600401808373ffffffffffffffffffffffffffffffffffffffff1673ffffffffffffffffffffffffffffffffffffffff16815260200182815260200192505050602060405180830381600087803b1580156122f457600080fd5b505af1158015612308573d6000803e3d6000fd5b505050506040513d602081101561231e57600080fd5b810190808051906020019092919050505061233557fe5b61238182878780806020026020016040519081016040528093929190818152602001838360200280828437600081840152601f19601f8201169050808301925050505050505086613eef565b5095945050505050565b60006123988484846138db565b90509392505050565b6060814281101561241a576040517f08c379a00000000000000000000000000000000000000000000000000000000081526004018080602001828103825260188152602001807f556e69737761705632526f757465723a2045585049524544000000000000000081525060200191505060405180910390fd5b6124867f000000000000000000000000000000000000000000000000000000000000000089888880806020026020016040519081016040528093929190818152602001838360200280828437600081840152601f19601f8201169050808301925050505050505061419a565b9150868260008151811061249657fe5b602002602001015111156124f5576040517f08c379a0000000000000000000000000000000000000000000000000000000008152600401808060200182810382526027815260200180614e546027913960400191505060405180910390fd5b6125ba8686600081811061250557fe5b9050602002013573ffffffffffffffffffffffffffffffffffffffff16336125a07f00000000000000000000000000000000000000000000000000000000000000008a8a600081811061255457fe5b9050602002013573ffffffffffffffffffffffffffffffffffffffff168b8b600181811061257e57fe5b9050602002013573ffffffffffffffffffffffffffffffffffffffff16613b83565b856000815181106125ad57fe5b6020026020010151613cde565b61260682878780806020026020016040519081016040528093929190818152602001838360200280828437600081840152601f19601f8201169050808301925050505050505086613eef565b509695505050505050565b7f000000000000000000000000000000000000000000000000000000000000000081565b600061264284848461431a565b90509392505050565b60008082428110156126c5576040517f08c379a00000000000000000000000000000000000000000000000000000000081526004018080602001828103825260188152602001807f556e69737761705632526f757465723a2045585049524544000000000000000081525060200191505060405180910390fd5b60006126f27f00000000000000000000000000000000000000000000000000000000000000008c8c613b83565b90508073ffffffffffffffffffffffffffffffffffffffff166323b872dd33838c6040518463ffffffff1660e01b8152600401808473ffffffffffffffffffffffffffffffffffffffff1673ffffffffffffffffffffffffffffffffffffffff1681526020018373ffffffffffffffffffffffffffffffffffffffff1673ffffffffffffffffffffffffffffffffffffffff1681526020018281526020019350505050602060405180830381600087803b1580156127af57600080fd5b505af11580156127c3573d6000803e3d6000fd5b505050506040513d60208110156127d957600080fd5b8101908080519060200190929190505050506000808273ffffffffffffffffffffffffffffffffffffffff166389afcb44896040518263ffffffff1660e01b8152600401808273ffffffffffffffffffffffffffffffffffffffff1673ffffffffffffffffffffffffffffffffffffffff1681526020019150506040805180830381600087803b15801561286c57600080fd5b505af1158015612880573d6000803e3d6000fd5b505050506040513d604081101561289657600080fd5b8101908080519060200190929190805190602001909291905050509150915060006128c18e8e6143fe565b5090508073ffffffffffffffffffffffffffffffffffffffff168e73ffffffffffffffffffffffffffffffffffffffff16146128fe578183612901565b82825b80975081985050508a871015612962576040517f08c379a0000000000000000000000000000000000000000000000000000000008152600401808060200182810382526026815260200180614e7b6026913960400191505060405180910390fd5b898610156129bb576040517f08c379a0000000000000000000000000000000000000000000000000000000008152600401808060200182810382526026815260200180614de16026913960400191505060405180910390fd5b505050505097509795505050505050565b7f000000000000000000000000000000000000000000000000000000000000000081565b6060612a1d7f00000000000000000000000000000000000000000000000000000000000000008484613a0b565b905092915050565b6000806000612a757f00000000000000000000000000000000000000000000000000000000000000008e7f0000000000000000000000000000000000000000000000000000000000000000613b83565b9050600087612a84578c612aa6565b7fffffffffffffffffffffffffffffffffffffffffffffffffffffffffffffffff5b90508173ffffffffffffffffffffffffffffffffffffffff1663d505accf3330848d8c8c8c6040518863ffffffff1660e01b8152600401808873ffffffffffffffffffffffffffffffffffffffff1673ffffffffffffffffffffffffffffffffffffffff1681526020018773ffffffffffffffffffffffffffffffffffffffff1673ffffffffffffffffffffffffffffffffffffffff1681526020018681526020018581526020018460ff1660ff168152602001838152602001828152602001975050505050505050600060405180830381600087803b158015612b8957600080fd5b505af1158015612b9d573d6000803e3d6000fd5b50505050612baf8e8e8e8e8e8e611100565b809450819550505050509a509a98505050505050505050565b60008060008342811015612c44576040517f08c379a00000000000000000000000000000000000000000000000000000000081526004018080602001828103825260188152602001807f556e69737761705632526f757465723a2045585049524544000000000000000081525060200191505060405180910390fd5b612c528c8c8c8c8c8c614575565b80945081955050506000612c877f00000000000000000000000000000000000000000000000000000000000000008e8e613b83565b9050612c958d338388613cde565b612ca18c338387613cde565b8073ffffffffffffffffffffffffffffffffffffffff16636a627842886040518263ffffffff1660e01b8152600401808273ffffffffffffffffffffffffffffffffffffffff1673ffffffffffffffffffffffffffffffffffffffff168152602001915050602060405180830381600087803b158015612d2057600080fd5b505af1158015612d34573d6000803e3d6000fd5b505050506040513d6020811015612d4a57600080fd5b810190808051906020019092919050505092505050985098509895505050505050565b60008060008342811015612de9576040517f08c379a00000000000000000000000000000000000000000000000000000000081526004018080602001828103825260188152602001807f556e69737761705632526f757465723a2045585049524544000000000000000081525060200191505060405180910390fd5b612e178a7f00000000000000000000000000000000000000000000000000000000000000008b348c8c614575565b80945081955050506000612e6c7f00000000000000000000000000000000000000000000000000000000000000008c7f0000000000000000000000000000000000000000000000000000000000000000613b83565b9050612e7a8b338388613cde565b7f000000000000000000000000000000000000000000000000000000000000000073ffffffffffffffffffffffffffffffffffffffff1663d0e30db0856040518263ffffffff1660e01b81526004016000604051808303818588803b158015612ee257600080fd5b505af1158015612ef6573d6000803e3d6000fd5b50505050507f000000000000000000000000000000000000000000000000000000000000000073ffffffffffffffffffffffffffffffffffffffff1663a9059cbb82866040518363ffffffff1660e01b8152600401808373ffffffffffffffffffffffffffffffffffffffff1673ffffffffffffffffffffffffffffffffffffffff16815260200182815260200192505050602060405180830381600087803b158015612fa257600080fd5b505af1158015612fb6573d6000803e3d6000fd5b505050506040513d6020811015612fcc57600080fd5b8101908080519060200190929190505050612fe357fe5b8073ffffffffffffffffffffffffffffffffffffffff16636a627842886040518263ffffffff1660e01b8152600401808273ffffffffffffffffffffffffffffffffffffffff1673ffffffffffffffffffffffffffffffffffffffff168152602001915050602060405180830381600087803b15801561306257600080fd5b505af1158015613076573d6000803e3d6000fd5b505050506040513d602081101561308c57600080fd5b81019080805190602001909291905050509250833411156130b4576130b33385340361377c565b5b505096509650969350505050565b6060814281101561313b576040517f08c379a00000000000000000000000000000000000000000000000000000000081526004018080602001828103825260188152602001807f556e69737761705632526f757465723a2045585049524544000000000000000081525060200191505060405180910390fd5b7f000000000000000000000000000000000000000000000000000000000000000073ffffffffffffffffffffffffffffffffffffffff168686600081811061317f57fe5b9050602002013573ffffffffffffffffffffffffffffffffffffffff1673ffffffffffffffffffffffffffffffffffffffff1614613225576040517f08c379a000000000000000000000000000000000000000000000000000000000815260040180806020018281038252601d8152602001807f556e69737761705632526f757465723a20494e56414c49445f5041544800000081525060200191505060405180910390fd5b6132917f000000000000000000000000000000000000000000000000000000000000000088888880806020026020016040519081016040528093929190818152602001838360200280828437600081840152601f19601f8201169050808301925050505050505061419a565b915034826000815181106132a157fe5b60200260200101511115613300576040517f08c379a0000000000000000000000000000000000000000000000000000000008152600401808060200182810382526027815260200180614e546027913960400191505060405180910390fd5b7f000000000000000000000000000000000000000000000000000000000000000073ffffffffffffffffffffffffffffffffffffffff1663d0e30db08360008151811061334957fe5b60200260200101516040518263ffffffff1660e01b81526004016000604051808303818588803b15801561337c57600080fd5b505af1158015613390573d6000803e3d6000fd5b50505050507f000000000000000000000000000000000000000000000000000000000000000073ffffffffffffffffffffffffffffffffffffffff1663a9059cbb61344e7f00000000000000000000000000000000000000000000000000000000000000008989600081811061340257fe5b9050602002013573ffffffffffffffffffffffffffffffffffffffff168a8a600181811061342c57fe5b9050602002013573ffffffffffffffffffffffffffffffffffffffff16613b83565b8460008151811061345b57fe5b60200260200101516040518363ffffffff1660e01b8152600401808373ffffffffffffffffffffffffffffffffffffffff1673ffffffffffffffffffffffffffffffffffffffff16815260200182815260200192505050602060405180830381600087803b1580156134cc57600080fd5b505af11580156134e0573d6000803e3d6000fd5b505050506040513d60208110156134f657600080fd5b810190808051906020019092919050505061350d57fe5b61355982878780806020026020016040519081016040528093929190818152602001838360200280828437600081840152601f19601f8201169050808301925050505050505086613eef565b8160008151811061356657fe5b602002602001015134111561359657613595338360008151811061358657fe5b6020026020010151340361377c565b5b5095945050505050565b600060608473ffffffffffffffffffffffffffffffffffffffff1663a9059cbb8585604051602401808373ffffffffffffffffffffffffffffffffffffffff1673ffffffffffffffffffffffffffffffffffffffff168152602001828152602001925050506040516020818303038152906040529060e01b6020820180517bffffffffffffffffffffffffffffffffffffffffffffffffffffffff83818316178352505050506040518082805190602001908083835b602083106136795780518252602082019150602081019050602083039250613656565b6001836020036101000a0380198251168184511680821785525050505050509050019150506000604051808303816000865af19150503d80600081146136db576040519150601f19603f3d011682016040523d82523d6000602084013e6136e0565b606091505b5091509150818015613720575060008151148061371f575080806020019051602081101561370d57600080fd5b81019080805190602001909291905050505b5b613775576040517f08c379a000000000000000000000000000000000000000000000000000000000815260040180806020018281038252602d815260200180614ecc602d913960400191505060405180910390fd5b5050505050565b60008273ffffffffffffffffffffffffffffffffffffffff1682600067ffffffffffffffff811180156137ae57600080fd5b506040519080825280601f01601f1916602001820160405280156137e15781602001600182028036833780820191505090505b506040518082805190602001908083835b6020831061381557805182526020820191506020810190506020830392506137f2565b6001836020036101000a03801982511681845116808217855250505050505090500191505060006040518083038185875af1925050503d8060008114613877576040519150601f19603f3d011682016040523d82523d6000602084013e61387c565b606091505b50509050806138d6576040517f08c379a0000000000000000000000000000000000000000000000000000000008152600401808060200182810382526034815260200180614d886034913960400191505060405180910390fd5b505050565b6000808411613935576040517f08c379a000000000000000000000000000000000000000000000000000000000815260040180806020018281038252602b815260200180614ef9602b913960400191505060405180910390fd5b6000831180156139455750600082115b61399a576040517f08c379a0000000000000000000000000000000000000000000000000000000008152600401808060200182810382526028815260200180614e076028913960400191505060405180910390fd5b60006139b16103e58661492990919063ffffffff16565b905060006139c8848361492990919063ffffffff16565b905060006139f3836139e56103e88961492990919063ffffffff16565b6149be90919063ffffffff16565b90508082816139fe57fe5b0493505050509392505050565b6060600282511015613a85576040517f08c379a000000000000000000000000000000000000000000000000000000000815260040180806020018281038252601e8152602001807f556e697377617056324c6962726172793a20494e56414c49445f50415448000081525060200191505060405180910390fd5b815167ffffffffffffffff81118015613a9d57600080fd5b50604051908082528060200260200182016040528015613acc5781602001602082028036833780820191505090505b5090508281600081518110613add57fe5b60200260200101818152505060005b6001835103811015613b7b57600080613b2f87868581518110613b0b57fe5b6020026020010151876001870181518110613b2257fe5b6020026020010151614a41565b91509150613b51848481518110613b4257fe5b602002602001015183836138db565b846001850181518110613b6057fe5b60200260200101818152505050508080600101915050613aec565b509392505050565b6000806000613b9285856143fe565b91509150858282604051602001808373ffffffffffffffffffffffffffffffffffffffff1673ffffffffffffffffffffffffffffffffffffffff1660601b81526014018273ffffffffffffffffffffffffffffffffffffffff1673ffffffffffffffffffffffffffffffffffffffff1660601b8152601401925050506040516020818303038152906040528051906020012060405160200180807fff000000000000000000000000000000000000000000000000000000000000008152506001018373ffffffffffffffffffffffffffffffffffffffff1673ffffffffffffffffffffffffffffffffffffffff1660601b8152601401828152602001807f40ccc7d6659c66489c67f86ee7da56ef3d635186e37713baa8676c9dee5f9325815250602001925050506040516020818303038152906040528051906020012060001c925050509392505050565b600060608573ffffffffffffffffffffffffffffffffffffffff166323b872dd868686604051602401808473ffffffffffffffffffffffffffffffffffffffff1673ffffffffffffffffffffffffffffffffffffffff1681526020018373ffffffffffffffffffffffffffffffffffffffff1673ffffffffffffffffffffffffffffffffffffffff16815260200182815260200193505050506040516020818303038152906040529060e01b6020820180517bffffffffffffffffffffffffffffffffffffffffffffffffffffffff83818316178352505050506040518082805190602001908083835b60208310613deb5780518252602082019150602081019050602083039250613dc8565b6001836020036101000a0380198251168184511680821785525050505050509050019150506000604051808303816000865af19150503d8060008114613e4d576040519150601f19603f3d011682016040523d82523d6000602084013e613e52565b606091505b5091509150818015613e925750600081511480613e915750808060200190516020811015613e7f57600080fd5b81019080805190602001909291905050505b5b613ee7576040517f08c379a0000000000000000000000000000000000000000000000000000000008152600401808060200182810382526031815260200180614d576031913960400191505060405180910390fd5b505050505050565b60005b600183510381101561419457600080848381518110613f0d57fe5b6020026020010151856001850181518110613f2457fe5b6020026020010151915091506000613f3c83836143fe565b5090506000876001860181518110613f5057fe5b602002602001015190506000808373ffffffffffffffffffffffffffffffffffffffff168673ffffffffffffffffffffffffffffffffffffffff1614613f9857826000613f9c565b6000835b91509150600060028a51038810613fb35788613ff5565b613ff47f0000000000000000000000000000000000000000000000000000000000000000878c60028c0181518110613fe757fe5b6020026020010151613b83565b5b90506140227f00000000000000000000000000000000000000000000000000000000000000008888613b83565b73ffffffffffffffffffffffffffffffffffffffff1663022c0d9f848484600067ffffffffffffffff8111801561405857600080fd5b506040519080825280601f01601f19166020018201604052801561408b5781602001600182028036833780820191505090505b506040518563ffffffff1660e01b8152600401808581526020018481526020018373ffffffffffffffffffffffffffffffffffffffff1673ffffffffffffffffffffffffffffffffffffffff16815260200180602001828103825283818151815260200191508051906020019080838360005b838110156141195780820151818401526020810190506140fe565b50505050905090810190601f1680156141465780820380516001836020036101000a031916815260200191505b5095505050505050600060405180830381600087803b15801561416857600080fd5b505af115801561417c573d6000803e3d6000fd5b50505050505050505050508080600101915050613ef2565b50505050565b6060600282511015614214576040517f08c379a000000000000000000000000000000000000000000000000000000000815260040180806020018281038252601e8152602001807f556e697377617056324c6962726172793a20494e56414c49445f50415448000081525060200191505060405180910390fd5b815167ffffffffffffffff8111801561422c57600080fd5b5060405190808252806020026020018201604052801561425b5781602001602082028036833780820191505090505b509050828160018351038151811061426f57fe5b6020026020010181815250506000600183510390505b6000811115614312576000806142c5878660018603815181106142a457fe5b60200260200101518786815181106142b857fe5b6020026020010151614a41565b915091506142e78484815181106142d857fe5b60200260200101518383614b6a565b8460018503815181106142f657fe5b6020026020010181815250505050808060019003915050614285565b509392505050565b6000808411614374576040517f08c379a0000000000000000000000000000000000000000000000000000000008152600401808060200182810382526025815260200180614e2f6025913960400191505060405180910390fd5b6000831180156143845750600082115b6143d9576040517f08c379a0000000000000000000000000000000000000000000000000000000008152600401808060200182810382526028815260200180614e076028913960400191505060405180910390fd5b826143ed838661492990919063ffffffff16565b816143f457fe5b0490509392505050565b6000808273ffffffffffffffffffffffffffffffffffffffff168473ffffffffffffffffffffffffffffffffffffffff161415614486576040517f08c379a0000000000000000000000000000000000000000000000000000000008152600401808060200182810382526025815260200180614dbc6025913960400191505060405180910390fd5b8273ffffffffffffffffffffffffffffffffffffffff168473ffffffffffffffffffffffffffffffffffffffff16106144c05782846144c3565b83835b8092508193505050600073ffffffffffffffffffffffffffffffffffffffff168273ffffffffffffffffffffffffffffffffffffffff16141561456e576040517f08c379a000000000000000000000000000000000000000000000000000000000815260040180806020018281038252601e8152602001807f556e697377617056324c6962726172793a205a45524f5f41444452455353000081525060200191505060405180910390fd5b9250929050565b600080600073ffffffffffffffffffffffffffffffffffffffff167f000000000000000000000000000000000000000000000000000000000000000073ffffffffffffffffffffffffffffffffffffffff1663e6a439058a8a6040518363ffffffff1660e01b8152600401808373ffffffffffffffffffffffffffffffffffffffff1673ffffffffffffffffffffffffffffffffffffffff1681526020018273ffffffffffffffffffffffffffffffffffffffff1673ffffffffffffffffffffffffffffffffffffffff1681526020019250505060206040518083038186803b15801561466157600080fd5b505afa158015614675573d6000803e3d6000fd5b505050506040513d602081101561468b57600080fd5b810190808051906020019092919050505073ffffffffffffffffffffffffffffffffffffffff1614156147c8577f000000000000000000000000000000000000000000000000000000000000000073ffffffffffffffffffffffffffffffffffffffff1663c9c6539689896040518363ffffffff1660e01b8152600401808373ffffffffffffffffffffffffffffffffffffffff1673ffffffffffffffffffffffffffffffffffffffff1681526020018273ffffffffffffffffffffffffffffffffffffffff1673ffffffffffffffffffffffffffffffffffffffff16815260200192505050602060405180830381600087803b15801561478b57600080fd5b505af115801561479f573d6000803e3d6000fd5b505050506040513d60208110156147b557600080fd5b8101908080519060200190929190505050505b6000806147f67f00000000000000000000000000000000000000000000000000000000000000008b8b614a41565b9150915060008214801561480a5750600081145b1561481e578787809450819550505061491c565b600061482b89848461431a565b905087811161489c578581101561488d576040517f08c379a0000000000000000000000000000000000000000000000000000000008152600401808060200182810382526026815260200180614de16026913960400191505060405180910390fd5b8881809550819650505061491a565b60006148a989848661431a565b9050898111156148b557fe5b8781101561490e576040517f08c379a0000000000000000000000000000000000000000000000000000000008152600401808060200182810382526026815260200180614e7b6026913960400191505060405180910390fd5b80898096508197505050505b505b5050965096945050505050565b600080821480614946575082828385029250828161494357fe5b04145b6149b8576040517f08c379a00000000000000000000000000000000000000000000000000000000081526004018080602001828103825260148152602001807f64732d6d6174682d6d756c2d6f766572666c6f7700000000000000000000000081525060200191505060405180910390fd5b92915050565b6000828284019150811015614a3b576040517f08c379a00000000000000000000000000000000000000000000000000000000081526004018080602001828103825260148152602001807f64732d6d6174682d6164642d6f766572666c6f7700000000000000000000000081525060200191505060405180910390fd5b92915050565b6000806000614a5085856143fe565b509050600080614a61888888613b83565b73ffffffffffffffffffffffffffffffffffffffff16630902f1ac6040518163ffffffff1660e01b815260040160606040518083038186803b158015614aa657600080fd5b505afa158015614aba573d6000803e3d6000fd5b505050506040513d6060811015614ad057600080fd5b81019080805190602001909291908051906020019092919080519060200190929190505050506dffffffffffffffffffffffffffff1691506dffffffffffffffffffffffffffff1691508273ffffffffffffffffffffffffffffffffffffffff168773ffffffffffffffffffffffffffffffffffffffff1614614b54578082614b57565b81815b8095508196505050505050935093915050565b6000808411614bc4576040517f08c379a000000000000000000000000000000000000000000000000000000000815260040180806020018281038252602c815260200180614d2b602c913960400191505060405180910390fd5b600083118015614bd45750600082115b614c29576040517f08c379a0000000000000000000000000000000000000000000000000000000008152600401808060200182810382526028815260200180614e076028913960400191505060405180910390fd5b6000614c526103e8614c44878761492990919063ffffffff16565b61492990919063ffffffff16565b90506000614c7d6103e5614c6f8887614ca790919063ffffffff16565b61492990919063ffffffff16565b9050614c9c6001828481614c8d57fe5b046149be90919063ffffffff16565b925050509392505050565b6000828284039150811115614d24576040517f08c379a00000000000000000000000000000000000000000000000000000000081526004018080602001828103825260158152602001807f64732d6d6174682d7375622d756e646572666c6f77000000000000000000000081525060200191505060405180910390fd5b9291505056fe556e697377617056324c6962726172793a20494e53554646494349454e545f4f55545055545f414d4f554e545472616e7366657248656c7065723a3a7472616e7366657246726f6d3a207472616e7366657246726f6d206661696c65645472616e7366657248656c7065723a3a736166655472616e736665724554483a20455448207472616e73666572206661696c6564556e697377617056324c6962726172793a204944454e544943414c5f414444524553534553556e69737761705632526f757465723a20494e53554646494349454e545f425f414d4f554e54556e697377617056324c6962726172793a20494e53554646494349454e545f4c4951554944495459556e697377617056324c6962726172793a20494e53554646494349454e545f414d4f554e54556e69737761705632526f757465723a204558434553534956455f494e5055545f414d4f554e54556e69737761705632526f757465723a20494e53554646494349454e545f415f414d4f554e54556e69737761705632526f757465723a20494e53554646494349454e545f4f55545055545f414d4f554e545472616e7366657248656c7065723a3a736166655472616e736665723a207472616e73666572206661696c6564556e697377617056324c6962726172793a20494e53554646494349454e545f494e5055545f414d4f554e54a2646970667358221220540fffce52003ed53c12bbcf69ff8bc561796ec4178fb4587690e413c437d22864736f6c63430006060033608060405234801561001057600080fd5b5061028b806100206000396000f3fe608060405234801561001057600080fd5b506004361061002b5760003560e01c8063be6d055a14610030575b600080fd5b6101096004803603604081101561004657600080fd5b81019080803573ffffffffffffffffffffffffffffffffffffffff1690602001909291908035906020019064010000000081111561008357600080fd5b82018360208201111561009557600080fd5b803590602001918460018302840111640100000000831117156100b757600080fd5b91908080601f016020809104026020016040519081016040528093929190818152602001838380828437600081840152601f19601f82011690508083019250505050505050919291929050505061018f565b604051808315151515815260200180602001828103825283818151815260200191508051906020019080838360005b83811015610153578082015181840152602081019050610138565b50505050905090810190601f1680156101805780820380516001836020036101000a031916815260200191505b50935050505060405180910390f35b600060608373ffffffffffffffffffffffffffffffffffffffff16836040518082805190602001908083835b602083106101de57805182526020820191506020810190506020830392506101bb565b6001836020036101000a0380198251168184511680821785525050505050509050019150506000604051808303816000865af19150503d8060008114610240576040519150601f19603f3d011682016040523d82523d6000602084013e610245565b606091505b508092508193505050925092905056fea2646970667358221220fd3aeb53f4da7766c47a2e8f12a1f035812c698edea528a179a53f36e936011264736f6c63430006060033",
  "linkReferences": {},
  "deployedLinkReferences": {}
}